:020000040800F2
:1000000048010120ED01000839250108E9D900085F
:10001000D5200108191200082DB8010800000000C1
:10002000000000000000000000000000414B01083B
:100030001D30000800000000D12D010865550108A1
:10004000070200080702000807020008070200086C
:10005000070200080702000807020008070200085C
:10006000070200080702000807020008312B0008F9
:10007000412B0008512B0008612B0008712B000850
:10008000070200080702000807020008070200082C
:10009000A1B6010875310008853100080702000883
:1000A000070200080702000807020008070200080C
:1000B00007020008070200080702000807020008FC
:1000C00007020008070200080702000807020008EC
:1000D00007020008C97F0108D97F0108E97F0108EC
:1000E00007020008070200080702000807020008CC
:1000F00007020008070200080702000807020008BC
:1001000007020008070200080702000807020008AB
:10011000316601084166010807020008070200086D
:10012000070200080702000807020008070200088B
:10013000070200080702000807020008070200087B
:10014000070200080702000807020008070200086B
:10015000070200080702000807020008070200085B
:10016000070200080702000807020008070200084B
:1001700007020008070200083556010807020008B8
:10018000070200080702000807020008070200082B
:10019000070200080000000095310008A5310008A2
:1001A000B5310008C5310008070200080702000841
:1001B0000702000807020008812B00080702000858
:1001C00007020008070200080702000807020008EB
:1001D0000702000807020008DFF80CD000F038FC26
:1001E000004800477DEA0108480101200648804791
:1001F00006480047FEE7FEE7FEE7FEE7FEE7FEE70C
:10020000FEE7FEE7FEE7FEE721560108D9010008F8
:100210002DE9F05F0546002092469B46884606463B
:10022000814640241BE0284641464746224600F0CE
:10023000D7FA53465A46C01A914110D31146184670
:10024000224600F0BEFA2D1A67EB01084F462246FF
:100250000120002100F0B5FA17EB00094E41201EE5
:10026000A4F10104DFDC484631462A464346BDE896
:10027000F09F40EA01039B0703D009E008C9121F61
:1002800008C0042AFAD203E011F8013B00F8013B50
:10029000521EF9D27047D2B201E000F8012B491E7C
:1002A000FBD270470022F6E710B513460A46044613
:1002B0001946FFF7F0FF204610BD421C10F8011B45
:1002C0000029FBD1801A7047034611F8012B00F872
:1002D000012B002AF9D1184670472DE9FE4F8046C0
:1002E00081EA0300C00F0C46009021F0004123F08A
:1002F0000045B8EB0200A94105D240462146904690
:100300001C460B46024623F00040104347D0270D01
:10031000C7F30A00C3F30A510290401A0190402823
:100320006BDAC3F3130040F4801B0098924620B1AF
:100330000023D2EB030A63EB0B0B01985946C0F183
:100340004002504600F03DFA06460D4650465946DA
:10035000019A00F055FA10EB08006141002487EA89
:10036000115284EAE7731A4340D0009A62B3019AAB
:10037000012A4FEA075215DC001B61EB02014FF026
:10038000004202EA0752CDE90042001C41F580110B
:1003900032462B4600F08CFA03B0BDE8F08F4046A1
:1003A0002146F9E7001B61EB0201001C41F58013B7
:1003B00000185B412018A2F5001747EB030140EA43
:1003C000D570B6196D4111E06D084FEA360645EA61
:1003D000C0754FEA0752001B61EB0201001C41F59A
:1003E000801149084FEA30000019514132462B462E
:1003F00003B0BDE8F04F00F04CBA00980122400075
:100400000023D0EB020263EBE073009821464FEA31
:10041000E074B8EB000061EB0401E9E783F000430E
:100420005BE781F0004158E72DE9FE4F81EA0304C4
:1004300004F0004421F0004100944FF0000B23F041
:10044000004350EA01045ED052EA03045BD0C3F3D8
:100450000A54C1F30A552C44A4F2F3340194A0FBCE
:100460000254C1F3130141F48011C3F3130343F4A5
:10047000801301FB024400FB034E840A970A44EAFE
:10048000815447EA8357A4FB076802958D0A05FB50
:1004900007854FEA932C04FB0C542705029D4FEA75
:1004A000065847EA1637B5EB08056EEB070C870EC2
:1004B000920E47EA811742EA8312A7FB0201B6EBCC
:1004C0000B0164EB00042B0D43EA0C335E1844EB84
:1004D0001C50DA465146E7FB0201C5F313044FEA0C
:1004E0000B3343EA14534FEA0432019C43EA0603F8
:1004F000A4F10C040294009CCDE900B400F0D8F9FA
:1005000003B0BDE8F08F00200146F9E72DE9F04D7A
:1005100081EA030404F0004B21F0004514464FF03B
:10052000000A23F0004150EA050220D054EA0102FB
:100530001DD0C5F30A570246C5F31303C1F31300D8
:10054000C1F30A5640F4801543F48013A7EB060864
:10055000101BD64608F2FD3873EB050002D308F1F4
:10056000010801E092185B41B8F1000F03DA0020A6
:100570000146BDE8F08D00204FF480110646844608
:100580000EE0171B73EB050705D3121B63EB050386
:1005900006434CEA010C49084FEA300092185B41CF
:1005A00050EA0107EDD152EA030012D082EA0400BA
:1005B00083EA0501084305D0101BAB4106D2012296
:1005C000002306E000224FF0004302E06FF001023A
:1005D00053101AEB06004CEB085110EB0A0041EBEC
:1005E0000B01BDE8F04D00F054B930B5041E71F1B7
:1005F000000404DB4FF00044404264EB0101141E90
:1006000073F1000405DB1C464FF00043524263EBDC
:100610000403801A994101D3012030BD002030BD70
:1006200030B5041E71F1000404DB4FF00044404279
:1006300064EB0101141E73F1000405DB1C464FF04E
:100640000043524263EB0403101A8B4101D3012093
:1006500030BD002030BD30B5041E71F1000404DB54
:100660004FF00044404264EB0101141E73F100049A
:1006700005DB1C464FF00043524263EB0403801A33
:10068000994101D2012030BD002030BD0EB5C10F0F
:1006900080EAE0700844CA07002140F233438DE845
:1006A0000E000A460B4600F003F903B000BD0EB57C
:1006B00040F2334102910021CDE900110A460B4678
:1006C00000F0F6F803B000BD70B5C1F30A5201F0B6
:1006D00000450024C1F3130140F2FF3341F48011BF
:1006E0009A4201DA002070BD40F233439A42A2F2EE
:1006F000334203DC524200F073F800E090402C4398
:10070000F1D0404270BDC1F30A5210B5C1F31301DC
:1007100040F2FF3341F480119A4201DA002010BD0B
:1007200040F233439A42A2F2334203DC524200F0D9
:1007300057F810BD904010BD00F0004230F000406E
:100740000AD0C10D01F56071C0F3160042EA0151F3
:10075000C20840071143704700200146704701F06E
:10076000004330B421F0004150EA010206D00A0DE6
:10077000A2F56072C1F31301002A02DC30BC002034
:100780007047440F44EAC104C100E01830BC00EBDC
:10079000C25000F047B830B50B4601460020202279
:1007A000012409E021FA02F59D4205D303FA02F57E
:1007B000491B04FA02F52844151EA2F10102F1DCDE
:1007C00030BD202A04DB203A00FA02F100207047F5
:1007D0009140C2F1200320FA03F31943904070477F
:1007E000202A04DB203A21FA02F00021704721FA86
:1007F00002F3D040C2F120029140084319467047ED
:10080000202A06DBCB17203A41FA02F043EAE073D4
:1008100006E041FA02F3D040C2F1200291400843C1
:10082000194670470029A8BF7047401C490008BFFF
:1008300020F00100704710B4B0FA80FC00FA0CF010
:1008400050EA010404BF10BC704749B1CCF1200448
:1008500021FA04F411FA0CF118BF012121430843D5
:10086000A3EB0C01CB1D4FEA00614FEA102042BF01
:10087000002010BC704700EBC35010440029A4BFF7
:1008800010BC7047401C490008BF20F0010010BC9C
:10089000704710B5141E73F1000408DA401C41F1D2
:1008A000000192185B411A4301D120F0010010BDF4
:1008B0002DE9F04D92469B4611B1B1FA81F202E06A
:1008C000B0FA80F220329046FFF77BFF04460F46D5
:1008D00040EA0A0041EA0B0153465A46084313D046
:1008E000114653EA010019D0C8F140025046FFF703
:1008F00077FF05460E46504659464246FFF761FFD0
:10090000084305D0012004E020463946BDE8F08DBB
:100910000020054346EAE0762C4337430A986305F6
:10092000E40AA0EB08000022FD0A44EA47540A301A
:1009300002D500200146E9E7010510196941DDE90A
:10094000084500196941BDE8F04DA2E72DE9F04DD9
:1009500000231A461B1A8A4103DB00200146BDE82A
:10096000F08DC1F30A52C1F3130141F480154FF029
:10097000000BD10702D100186D41521E002704461A
:1009800040F2FF11384601EB620A3E4680460246BD
:1009900000204FF48011FFF723FFC2197141BB18EB
:1009A00046EB0100B4EB030C75EB000C04D3E41A26
:1009B00065EB000517460E46241908F101006D414C
:1009C00080463428E3DDF91946EB0600091BA841EF
:1009D00003D24FF0FF32134601E0002213461BEB17
:1009E000070046EB0A51BDE8F04DFFF752BFC1F3D7
:1009F0000A52C1F3130140F2FF3341F480119A42CD
:100A000002DA00200146704740F233439A42A2F2D4
:100A1000334202DC5242FFF7E3BEFFF7D2BE0000D2
:100A200030B5041E71F1000404DB4FF00044404275
:100A300064EB0101141E73F1000405DB1C464FF04A
:100A40000043524263EB0403994208BF904230BD19
:100A50001CB509480090094801900546009C06E035
:100A6000E06840F0010394E8070098471034AC4276
:100A7000F6D3FFF7B5FB0000982C0208B82C02084B
:100A800070B58C1810F8015B15F0070301D110F850
:100A9000013B2A1106D110F8012B03E010F8016B7D
:100AA00001F8016B5B1EF9D12B0705D40023521E00
:100AB0000DD401F8013BFAE710F8013BCB1A921C68
:100AC00003E013F8015B01F8015B521EF9D5A14266
:100AD000D8D3002070BD000080B582B0019001998C
:100AE00040F26030C2F200001C22FFF7C2FB02B0ED
:100AF00080BD000080B584B0039000208DF80B000D
:100B0000FFE79DF80B00042814DCFFE740F2140017
:100B1000C2F2000000689DF80B2040F2E431C2F2FE
:100B2000000141F82200FFE79DF80B0001308DF82D
:100B30000B00E6E7FFE702F04FFF40F21400C2F2BD
:100B40000000006840F27C31C2F20001C1F81D00D3
:100B500041F29700C2F200000078632808DCFFE74A
:100B600040F27C31C2F20001012081F8260007E04A
:100B700040F27C31C2F20001002081F82600FFE73C
:100B800040F63010C2F20000426840F27C31C2F2FE
:100B900000010191C1F80520C268C1F80D208068EC
:100BA000C1F8090040F25C30C2F2000002F022F904
:100BB0000198D0F8011001EE101AB8EE411A9FED1D
:100BC000092A20EE020A30EE010ABCEEC00A10EE3D
:100BD000101AC0F8011027211AF0CEFD01201DF0D7
:100BE000B1FFA8E70024744980B541F20000C4F6C3
:100BF00000000821012206F075FD80BD80B541F29C
:100C00000000C4F600000821002206F06BFD80BD44
:100C100080B541F20000C4F600001021012206F068
:100C200061FD80BD80B541F20000C4F600001021D6
:100C3000002206F057FD80BD80B584B00390FFF719
:100C4000DDFF922000F01EFA40F2DA31C2F200011C
:100C500002911220062200F0E1F9FFF7C5FF029B86
:100C60001878597840EA012040F2D831C2F20001E8
:100C70000880B1F9000000EE100AB8EEC00A40F298
:100C80000800C2F2000090ED001A20EE010A039A5B
:100C900092ED081A20EE010A82ED000A9A7893F884
:100CA00003C042EA0C220A80B1F9002000EE102AAB
:100CB000B8EEC00A90ED001A20EE010A039A92EDF8
:100CC000081A20EE010A82ED010A1A795B7942EADC
:100CD00003220A80B1F9001000EE101AB8EEC00A23
:100CE00090ED001A20EE010A039890ED081A20EE0C
:100CF000010A80ED020AFFF795FF02990020082201
:100D000000F08CF9FFF784FF029800780F2840F07C
:100D10009E80FFE740F24220C2F2000000780028E7
:100D200050D0FFE740F2DA33C2F200039878D97866
:100D300040EA012040F2D831C2F200010880B1F946
:100D4000000000EE100AB8EEC00A40F20C00C2F239
:100D5000000090ED002A039A92ED091A20EE020A93
:100D600030EE410A82ED030A1A7993F805C042EA8F
:100D70000C220A80B1F9002000EE102AB8EEC00A59
:100D800090ED002A039A92ED0A1A20EE020A30EE44
:100D9000410A82ED040A9A79DB7942EA03220A8049
:100DA000B1F9001000EE101AB8EEC00A90ED002A5A
:100DB000039890ED0B1A20EE020A30EE410A80ED06
:100DC000050A43E040F2DA33C2F200039878D9789A
:100DD00040EA012040F2D831C2F200010880B1F9A6
:100DE000000000EE100AB8EEC00A40F20C00C2F299
:100DF000000090ED001A20EE010A039A82ED030A2A
:100E00001A7993F805C042EA0C220A80B1F9002051
:100E100000EE102AB8EEC00A90ED001A20EE010A8A
:100E2000039A82ED040A9A79DB7942EA03220A8066
:100E3000B1F9001000EE101AB8EEC00A90ED001AD9
:100E400020EE010A039880ED050AFFE7FFE7FFF7B0
:100E5000D5FEA22000F016F940F2DA31C2F200010C
:100E600001912220022200F0D9F8FFF7BDFE01997E
:100E700008784978C00040EA511140F2D830C2F2F7
:100E800000000180B0F90000B0F5806F09DBFFE7DA
:100E900040F2D831C2F200010888A0F50060088055
:100EA000FFE740F2D830C2F20000B0F9000000EED7
:100EB000100AB8EEC00AB4EE001A20EE010AB3EE32
:100EC000071A30EE010A039880ED070A04B080BDCE
:100ED00080B586B005908DF81310059840F210018A
:100EE000C2F20001086042F63421C2F20001029110
:100EF000002008701DF038FB029902460878104364
:100F000008701DF00FFC0299024608781043087023
:100F100040F62440C2F2000003904FF60001C0F6F4
:100F200007011422FFF7A5F9039890ED000AB7EE28
:100F3000001AB4EE410AF1EE10FA48D0FFE79DF82E
:100F40001300012843D1FFE740F2A430C2F20000B1
:100F5000009000F093FD009940F62442C2F2000296
:100F600001924FF07E501060486A5060886A90602D
:100F7000C86AD060086B106191ED0C1A9FED260ACB
:100F800080EE010A81ED080A0020C4F22020886169
:100F90007F2002F0E7F90198026843684FF60000ED
:100FA000C0F6070002F0B8FB01988268C3684FF6EC
:100FB0000800C0F6070002F0AFFB01980269436920
:100FC0004FF61000C0F6070002F0A6FB1CE040F64A
:100FD0002440C2F20000426840F2A431C2F2000193
:100FE0004A6282688A62C268CA620069086391EDD7
:100FF0000C1A9FED090A80EE010A81ED080A002013
:10100000C4F220208861FFE742F63420C2F20000DB
:10101000007806B080BD00BFC3F51C4180B584B028
:101020008DF80F0002918DF807209DF80F0040F019
:10103000800000F027F8FFE79DF8070070B1FFE798
:10104000552000F01FF802990870029801300290B4
:101050009DF8070001388DF80700EDE704B080BD6A
:1010600080B582B08DF8070000919DF8070040F030
:10107000800000F007F8552000F004F8009908708F
:1010800002B080BD80B582B08DF8070040F210003C
:10109000C2F2000000686A464FF47A7111600DF1E7
:1010A00007010DF10602012309F072FC9DF806000C
:1010B00002B080BD80B582B08DF807008DF80610B3
:1010C0009DF80700FFF7DEFF9DF80600FFF7DAFF47
:1010D00002B080BD83B0029001910092009890ED23
:1010E000004A90ED010A90ED026A90ED035A26EE57
:1010F000062AB6EE001A31EE422A25EE053A32EE05
:10110000432A029824EE057A20EE063A33EE477A17
:10111000D0ED000AD0ED011A90ED023A27EE217AC7
:1011200022EE202A32EE072A24EE064A20EE050A95
:1011300030EE040A20EE030A30EE020A30EE000A16
:10114000019880ED000A009890ED004A90ED016A48
:1011500090ED022A90ED035A24EE053A26EE020A9B
:1011600030EE030A029826EE063A31EE433A25EEB7
:10117000057A33EE477AD0ED000AD0ED011A90EDF2
:10118000023A27EE217A20EE200A30EE070A24EEFA
:10119000064A22EE052A32EE442A22EE032A30EED7
:1011A000020A30EE000A019880ED010A009890EDE5
:1011B000002A90ED014A90ED023A90ED030A22EEEA
:1011C000036A24EE005A35EE465A029822EE042AAB
:1011D00023EE000A30EE020A90ED006A90ED017AEB
:1011E00090ED022A20EE070A25EE065A30EE050A97
:1011F00024EE044A31EE441A23EE033A31EE431A48
:1012000021EE021A30EE010A30EE000A019880ED5C
:10121000020A03B070470000FFE7FEE780B582B026
:1012200043F60C00C2F2000001900AF01DF801988C
:1012300000210AF087FD02B080BD000081B08DF86A
:1012400003009DF8030040F20041C2F20001087063
:1012500001B0704783B08DF80B009DF80B0001467C
:101260000091152800F2C2810099DFE811F0160004
:101270001C002F00430057006B007F009300A70065
:10128000BB00CF00E300F7000B011F013301470152
:101290005B016F0183019701AB013220ADF80800BB
:1012A00064200190A2E13220ADF80800BDF80810DA
:1012B0004FF68060C0F62120B0FBF1F042F22D31F4
:1012C000C0F2FA01A0FB011001908FE13220ADF8CD
:1012D0000800BDF808104FF68060C0F62120B0FB72
:1012E000F1F049F2C551C0F6EE51A0FB0110000922
:1012F00001907BE13220ADF80800BDF808104FF6F0
:101300008060C0F62120B0FBF1F048F2C701C0F6C2
:101310006941A0FB01100009019067E13220ADF89E
:101320000800BDF808104FF68060C0F62120B0FB21
:10133000F1F048F20941C0F6BC31A0FB01100009F0
:10134000019053E13220ADF80800BDF808104FF6C7
:101350008060C0F62120B0FBF1F04BF61541C0F2E1
:101360009C21A0FB0110800801903FE13220ADF8E4
:101370000800BDF808104FF68060C0F62120B0FBD1
:10138000F1F042F29501C0F64F11A0FB01100009E7
:1013900001902BE13220ADF80800BDF808104FF69F
:1013A0008060C0F62120B0FBF1F049F69D71C0F6D7
:1013B0004A01A0FB01100009019017E13220ADF8AD
:1013C0000800BDF808104FF68060C0F62120B0FB81
:1013D000F1F04EF6E941C0F2D471A0FB0110000912
:1013E000019003E13220ADF80800BDF808104FF677
:1013F0008060C0F62120B0FBF1F04AF63711C0F64C
:10140000F451A0FB011040090190EFE03220ADF84B
:101410000800BDF808104FF68060C0F62120B0FB30
:10142000F1F042F69111C0F23761A0FB0110000902
:101430000190DBE03220ADF80800BDF808104FF64F
:101440008060C0F62120B0FBF1F048F20941C0F6FF
:10145000BC31A0FB011040090190C7E03220ADF87B
:101460000800BDF808104FF68060C0F62120B0FBE0
:10147000F1F04BF61541C0F29C21A0FB0110C00811
:101480000190B3E03220ADF80800BDF808104FF627
:101490008060C0F62120B0FBF1F042F29501C0F669
:1014A0004F11A0FB0110400901909FE03220ADF8E0
:1014B0000800BDF808104FF68060C0F62120B0FB90
:1014C000F1F049F69D71C0F64A01A0FB01104009F8
:1014D00001908BE03220ADF80800BDF808104FF6FF
:1014E0008060C0F62120B0FBF1F04EF6E941C0F279
:1014F000D471A0FB01104009019077E03220ADF8D3
:101500000800BDF808104FF68060C0F62120B0FB3F
:10151000F1F049F6D561C0F6F151A0FB0110800948
:10152000019063E03220ADF80800BDF808104FF6D6
:101530008060C0F62120B0FBF1F042F69111C0F2BC
:101540003761A0FB0110400901904FE03220ADF857
:101550000800BDF808104FF68060C0F62120B0FBEF
:10156000F1F04BF6EB21C1F27471A0FB0110C00940
:1015700001903BE03220ADF80800BDF808104FF6AE
:101580008060C0F62120B0FBF1F04BF61541C0F2AF
:101590009C21A0FB01100009019027E03220ADF84A
:1015A0000800BDF808104FF68060C0F62120B0FB9F
:1015B000F1F042F29501C0F64F11A0FB0110800935
:1015C000019013E03220ADF80800BDF808104FF686
:1015D0008060C0F62120B0FBF1F049F69D71C0F6A5
:1015E0004A01A0FB011080090190FFE7BDF8080047
:1015F000013843F60C01C2F2000109688862FFE776
:101600000198013843F60C01C2F200010A68D06269
:1016100001980138C860FFE70198400843F60C01C3
:10162000C2F200010968486303B0704780B543F611
:101630000C00C2F2000000210AF084FB80BD000013
:1016400080B543F60C00C2F2000000210AF0C6FC8F
:1016500080BD000080B590B00F90FFF7DFFDFFE781
:1016600040F20040C2F20000007801460E910528C9
:1016700000F203810E99DFE801F003107B97B3E4D9
:1016800000200D90FFF7E6FD0D9840F20041C2F2F8
:1016900000010870FFF7D4FFEFE0FFF7C7FF082055
:1016A000FFF7D8FDC82008901DF04CFA00200C90E0
:1016B000FFF7D0FD322009901DF044FA0920079071
:1016C000FFF7C8FD08981DF03DFA0C98FFF7C2FD22
:1016D00009981DF037FA0A20FFF7BCFD08981DF0A5
:1016E00031FA0C98FFF7B6FD09981DF02BFA079810
:1016F000FFF7B0FD08981DF025FA0C98FFF7AAFD3A
:1017000009981DF01FFA0C200A90FFF7A3FD089816
:101710001DF018FA0C98FFF79DFD09981DF012FABC
:101720000E20FFF797FD08981DF00CFA0C98FFF7B4
:1017300091FD09981DF006FA0D200B90FFF78AFD28
:101740004FF4FA701DF0FEF90A98FFF783FDFA20B6
:101750001DF0F8F90B98FFF77DFD40F2EE201DF02B
:10176000F1F90C9840F20041C2F20001087084E0E7
:10177000FFF75CFF0820FFF76DFDC82006901DF005
:10178000E1F90A20FFF766FD06981DF0DBF90C2051
:10179000FFF760FD06981DF0D5F940F20041C2F256
:1017A00000010020087068E0FFF740FF0C20FFF701
:1017B00051FDC82005901DF0C5F90A20FFF74AFD2C
:1017C00005981DF0BFF90820FFF744FD05981DF0AE
:1017D000B9F940F20041C2F20001002008704CE06B
:1017E000FFF724FF0E200190FFF734FD3220029016
:1017F0001DF0A8F900200490FFF72CFD962003901F
:101800001DF0A0F90198FFF725FD02981DF09AF947
:101810000498FFF71FFD03981DF094F90198FFF756
:1018200019FD02981DF08EF90498FFF713FD039837
:101830001DF088F9049840F20041C2F200010870DE
:101840001BE0FFF7F3FE0E20FFF704FDC820009019
:101850001DF078F90C20FFF7FDFC00981DF072F9DF
:101860000A20FFF7F7FC00981DF06CF940F20041E8
:10187000C2F2000100200870FFE70A201DF062F9A3
:10188000EEE6000080B58AB0099000200290039037
:1018900004900590012101910691079040F2FF709C
:1018A0000890099803A904F0EFFB029B0998694688
:1018B0000B600222114604F043FC0199029A099838
:1018C00004F08EFA0AB080BD80B584B043F27C107B
:1018D000C2F20000019005F047FB43F2E010C2F2B3
:1018E0000000029005F040FB43F24420C2F20000E9
:1018F000039005F039FB0198FFF7C4FF0298FFF74A
:10190000C1FF0398FFF7BEFF04B080BD80B58CB067
:101910000B90ADF82A100992BDF82A000090002023
:101920000190029008210391049005900690079081
:1019300008900B98099A694604F058FB0CB080BDDA
:1019400084B08DF80F000291ADF806209DF80F00CD
:101950000146009123281DD80099DFE801F01213F9
:101960001415161B1B1B1B1B1B1B1B1B1B1B1B1BD9
:101970001B1B1B1B1B1B1B1B1B1B1B1B1B1B1718BE
:10198000191A08E007E006E005E004E003E002E0E1
:1019900001E000E0FFE7002004B07047002070473E
:1019A00080B582B042F64820C2F20000009042F2B8
:1019B0001021C2F200010022019216F04DFE0098A3
:1019C00041F61021C2F2000116F02CFE019802B07F
:1019D00080BD000080B584B003900291039942F667
:1019E0004820C2F20000019016F01CFE019816F08B
:1019F000C3FD03980299096819F0A6FE002004B0FF
:101A000080BD000083B0029001918DF8032000207A
:101A10008DF802009DF9020003B0704780B586B0D2
:101A20000490ADF80E1000208DF80D0042F648200D
:101A3000C2F20000D0F8BC0202900298D0F8140262
:101A400020B1FFE701208DF8170013E00499BDF8DD
:101A50000E2042F64820C2F20000019016F0FCFD74
:101A6000019816F0E7FE8DF80D009DF80D008DF839
:101A70001700FFE79DF8170006B080BD80B592B053
:101A800005A902911190002010900F9001F0D8F953
:101A900040F22840C2F2000080ED000AFFE701F0AA
:101AA000CFF940F22840C2F2000090ED001A30EE6B
:101AB000410AB2EE041AB4EE410AF1EE10FA1ADD50
:101AC000FFE7119943F6AC00C3F622304862119942
:101AD00041F2B060C3F6CE1088621199C8621199C4
:101AE00041F23F60C4F21B10086311990020C4F258
:101AF00020208861F6E29FEDE40A01F04FF9119988
:101B00000020086311994862119988621199C8628E
:101B1000ADF81200FFE7BDF8120040F23A01C2F240
:101B200000010988884280F2E781FFE7FFF766F845
:101B30009220FFF7A7FA12200FA901910622FFF7C2
:101B40006DFAFFF751F89DF83C009DF83D1040EA12
:101B50000120ADF83A00BDF93A0000EE100AB8EEE7
:101B6000C00A40F20800C2F2000090ED001A20EE18
:101B7000010A119981ED000A9DF83E109DF83F2061
:101B800041EA0221ADF83A10BDF93A1000EE101A00
:101B9000B8EEC00A90ED001A20EE010A119981ED0D
:101BA000010A9DF840109DF8412041EA0221ADF85C
:101BB0003A10BDF93A1000EE101AB8EEC00A90EDD6
:101BC000001A20EE010A119880ED020A119890ED9A
:101BD000001A90ED012A90ED020A22EE022A21EE6F
:101BE000011A31EE021A20EE000A30EE010A1EF050
:101BF00090FE029880ED020A90ED021A119890ED85
:101C00000C0A30EE010A80ED0C0AFFF70BF801997F
:101C100000200822FFF702FAFEF7FAFF9DF83C00C9
:101C20000F285FD1FFE79DF83E009DF83F1040EA86
:101C30000120ADF83A00BDF93A0000EE100AB8EE06
:101C4000C00A40F20C00C2F2000090ED001A20EE33
:101C5000010A119981ED030A119991ED031A91ED91
:101C6000090A30EE010A81ED090A9DF840109DF83D
:101C7000412041EA0221ADF83A10BDF93A1000EED8
:101C8000101AB8EEC00A90ED001A20EE010A119960
:101C900081ED040A119991ED041A91ED0A0A30EED2
:101CA000010A81ED0A0A9DF842109DF8432041EA9D
:101CB0000221ADF83A10BDF93A1000EE101AB8EE54
:101CC000C00A90ED001A20EE010A119880ED050A75
:101CD000119890ED051A90ED0B0A30EE010A80ED97
:101CE0000B0AFFE7BDF8120038BBFFE70798069024
:101CF0000798059000208DF81100FFE79DF811006E
:101D0000022819DCFFE711989DF8112000EB8200F2
:101D1000C0680BA941F8220011989DF8112000EB32
:101D20008200C06808A941F82200FFE79DF8110071
:101D300001308DF81100E1E764E0029890ED020AAD
:101D400090ED011AB4EE410AF1EE10FA03DDFFE75F
:101D500007980690FFE7029890ED020A90ED001AAE
:101D6000B4EE410AF1EE10FA03DAFFE707980590A6
:101D7000FFE700208DF81000FFE79DF81000022813
:101D80003FDCFFE711989DF8101000EB810090ED0B
:101D9000030A0BA800EB810090ED001AB4EE410A93
:101DA000F1EE10FA0ADDFFE711989DF8102000EB24
:101DB0008200C0680BA941F82200FFE711989DF846
:101DC000101000EB810090ED030A08A800EB8100E1
:101DD00090ED001AB4EE410AF1EE10FA0ADAFFE7CC
:101DE00011989DF8102000EB8200C06808A941F806
:101DF0002200FFE7FFE79DF8100001308DF810008A
:101E0000BBE7FFE7029890ED010A90ED001A30EE73
:101E1000410A42F63820C2F2000080ED000A00209C
:101E20008DF80F00FFE79DF80F0002281DDCFFE78B
:101E30009DF80F100BA800EB810090ED000A08A898
:101E400000EB810090ED001A30EE410A42F63C2092
:101E5000C2F2000000EB810080ED000AFFE79DF870
:101E60000F0001308DF80F00DDE742F63820C2F296
:101E7000000090ED000AB6EE001AB4EE410AF1EE51
:101E800010FA2DDC02E000BF0AD7A33B42F63C204B
:101E9000C2F2000090ED000A9FED981AB4EE410ADC
:101EA000F1EE10FA1CDCFFE742F63C20C2F2000023
:101EB00090ED010A9FED911AB4EE410AF1EE10FA8D
:101EC0000EDCFFE742F63C20C2F2000090ED020A71
:101ED0009FED8A1AB4EE410AF1EE10FA01DDFFE738
:101EE0000AE09FED870A00F059FFFFE7BDF81200F6
:101EF0000130ADF812000EE640F23A00C2F20000E6
:101F0000008800EE100AB8EE401A119890ED0C0A05
:101F100080EE010A80ED0C0A00208DF80E00FFE72C
:101F20009DF80E0002281BDCFFE740F23A00C2F2E7
:101F30000000008800EE100AB8EE401A11989DF8D3
:101F40000E1000EB810090ED090A80EE010A80ED91
:101F5000090AFFE79DF80E0001308DF80E00DFE75B
:101F6000FEF74CFEA220FFF78DF822200FA90222D7
:101F7000FFF754F8FEF738FE9DF83C009DF83D1041
:101F8000C00040EA5110ADF83A00BDF93A00B0F592
:101F9000806F07DBFFE7BDF83A00A0F50060ADF801
:101FA0003A00FFE7BDF93A0000EE100AB8EEC00AA9
:101FB000B4EE001A20EE010AB3EE071A30EE010A61
:101FC000119880ED060A42F62821C2F20001088825
:101FD00001300880FFE742F63820C2F2000090EDA1
:101FE000000A0120B6EE001AB4EE410AF1EE10FA32
:101FF000009071DCFFE7119890ED0C0A9FED411AFB
:1020000030EE010AB0EEC00A0120B6EE001AB4EEBE
:10201000410AF1EE10FA00905EDCFFE742F63C2048
:10202000C2F2000090ED000A01209FED341AB4EED8
:10203000410AF1EE10FA00904EDCFFE742F63C2038
:10204000C2F2000090ED010A01209FED2C1AB4EEBF
:10205000410AF1EE10FA00903EDCFFE742F63C2028
:10206000C2F2000090ED020A01209FED241AB4EEA6
:10207000410AF1EE10FA00902EDCFFE7119890ED86
:10208000090AB0EEC00A01209FED1F1AB4EE410A02
:10209000F1EE10FA00901FDCFFE7119890ED0A0AAC
:1020A000B0EEC00A01209FED181AB4EE410AF1EE1D
:1020B00010FA009010DCFFE7119890ED0B0AB0EEDB
:1020C000C00A9FED111A0020B4EE410AF1EE10FA99
:1020D000C8BF01200090FFE70098C00700287FF4E8
:1020E000DEACFFE7119890ED0C1A9FED080A80EE28
:1020F000010A80ED080A12B080BD00BF9A99193E0E
:102100006F12033ACDCC1CC10AD7233CC3F51C4146
:1021100080B5B2B031904FF47A701CF013FD40F2EC
:102120003040C2F200002B908C30B2EE040A8DEDEC
:10213000270AF7EE000ACDED280ADFED6A1ACDED89
:102140002C1A9FED692A8DED292ADFED682ACDED45
:102150002A2AB0EE611A10F04FFD9DED270ADDED41
:10216000280A9DED292ADDED2A2A2B98DDED2C1A6F
:10217000D430B0EE611A10F03FFD9DED270ADDED81
:10218000280A9DED292ADDED2A2A2B98DDED2C1A4F
:1021900000F58E70B0EE611A10F02EFD9DED270A4D
:1021A000DDED280A9DED292ADDED2A2A2B98DDEDAB
:1021B0002C1A00F5B270B0EE611A10F01DFD2B98CC
:1021C0009DED2C2A4430B1EE040ADFED492AF0EEF1
:1021D000420AB0EE421AF0EE421A10F00DFDFFE78F
:1021E00040F6B470C2F2000090ED0B0A9FED411A68
:1021F00020EE010A9FED401A80EE010A40F23041C4
:10220000C2F2000181ED0C0A90F8330005287BD161
:10221000FFE740F23041C2F20001259100208860C2
:1022200040F6B470C2F20000269090ED020AB7EEBC
:10223000081A20EE010A10EE100AFEF77DFA024697
:1022400025981A920A461A9942EC101B8DED1E0B26
:10225000006BFEF771FA41EC100B1EF055FA269850
:102260008DED200B4068FEF767FA024625981B9219
:102270000A461B9942EC101B8DED1C0B006BFEF700
:102280005BFA41EC100B1EF0A3FA9DED1C1B51EC08
:10229000110B53EC102BFEF7C7F89DED1E1B9DEDA7
:1022A000200B41EC120B8DED222B51EC110B53EC5A
:1022B000102BFEF7B9F89DED220B41EC110B51EC00
:1022C000110B53EC102BFEF708F841EC100B51ECFE
:1022D000100BFEF744FA259902462698CA60C0689A
:1022E0000861BFE0000000000000484400007A469A
:1022F00000006143DB0F4940000034C3E08797389A
:10230000E605E03EE02E654240F6B470C2F2000001
:1023100019904068FEF710FA41EC100B8DED080B98
:1023200040F23040C2F200001890006BFEF704FA51
:1023300041EC100B1EF0E8F919988DED0A0B80683E
:10234000FEF7FAF90246189805920A46059942ECFA
:10235000101B8DED060B006BFEF7EEF941EC100B38
:102360001EF036FA9DED061B51EC110B53EC102BB1
:10237000FEF75AF89DED081B9DED0A0B41EC120B80
:102380008DED0C2B51EC110B53EC102BFEF74CF890
:102390009DED0C0B41EC110B51EC110B53EC102B80
:1023A000FDF79BFF41EC100B51EC100BFEF7D7F93A
:1023B000189A0146199891608068FEF7BDF90246A7
:1023C00018980E920A460E9942EC101B8DED120BD6
:1023D000006BFEF7B1F941EC100B1EF095F919985E
:1023E0008DED140B4068FEF7A7F9024618980F927E
:1023F0000A460F9942EC101B8DED100B006BFEF797
:102400009BF941EC100B1EF0E3F99DED101B51EC14
:10241000110B53EC102BFEF707F89DED121B9DEDF1
:10242000140B41EC120B8DED162B51EC110B53ECF0
:10243000102BFDF7F9FF9DED160B41EC110B51EC44
:10244000110B53EC102BFDF7E9FF41EC100B51EC95
:10245000100BFEF784F9189902461998CA60C068F3
:102460000861FFE740F23040C2F2000003902C30D8
:1024700000F0C0FC03988DED300A40F6C811C2F29E
:102480000001049191ED080A91ED133A91ED1E2A95
:1024900091ED291A30EE030A30EE420A30EE410A7D
:1024A0001FED6A1A20EE010A8DED2F0A91ED080A40
:1024B00091ED134A91ED1E3A91ED292A30EE440A2E
:1024C00030EE430A30EE020A20EE010A8DED2E0AAC
:1024D00091ED080A91ED134A91ED1E3A91ED292AEA
:1024E00030EE040A30EE030A30EE020A20EE010A52
:1024F0001FED7D1A80EE010A8DED2D0A9DED2F0A4C
:102500009DED302A90ED081A20EE020A30EE010A05
:1025100080ED080A9DED2E0A9DED302A90ED091AF6
:1025200020EE020A30EE010A80ED090A9DED2D0A27
:102530009DED301A20EE010A90ED0A1A1FED8F2A48
:1025400020EE020A30EE010A80ED0A0A90ED020A3E
:1025500090ED051AB4EE410AF1EE10FA23DDFFE723
:1025600040F23040C2F2000090ED020A9DED301AB8
:10257000B2EE002A21EE021AB4EE410AF1EE10FA90
:1025800011DBFFE79DED300A40F23040C2F200005F
:1025900090ED051AB2EE002A20EE020A30EE010A92
:1025A00080ED050A38E040F23040C2F2000090EDC4
:1025B000020A90ED051AB4EE410AF1EE10FA23DAA0
:1025C000FFE740F23040C2F2000090ED020A9DEDBC
:1025D000301ABAEE002A21EE021AB4EE410AF1EEE8
:1025E00010FA11DCFFE79DED301A40F23040C2F2E4
:1025F000000090ED050ABAEE002A21EE021A30EE34
:10260000010A80ED050A06E040F23041C2F2000105
:1026100088684861FFE7FFE740F23040C2F20000FF
:1026200090ED030A90ED061AB4EE410AF1EE10FAAD
:1026300023DDFFE740F23040C2F2000090ED030AD4
:102640009DED301AB2EE002A21EE021AB4EE410AD4
:10265000F1EE10FA11DBFFE79DED300A40F2304059
:10266000C2F2000090ED061AB2EE002A20EE020A35
:1026700030EE010A80ED060A38E040F23040C2F246
:10268000000090ED030A90ED061AB4EE410AF1EE57
:1026900010FA23DAFFE740F23040C2F2000090ED7A
:1026A000030A9DED301ABAEE002A21EE021AB4EEAA
:1026B000410AF1EE10FA11DCFFE79DED301A40F20D
:1026C0003040C2F2000090ED060ABAEE002A21EE78
:1026D000021A30EE010A80ED060A06E040F23041AF
:1026E000C2F20001C8688861FFE7FFE740F23040AE
:1026F000C2F2000090ED040A90ED071AB4EE410A10
:10270000F1EE10FA2BDDFFE740F23040C2F200009C
:1027100090ED040A9DED301AB2EE002A21EE021A65
:102720009FEDC52A81EE021AB4EE410AF1EE10FACD
:1027300015DBFFE79DED300AB2EE001A20EE010A2C
:102740009FEDBD1A80EE011A40F23040C2F2000047
:1027500090ED070A30EE010A80ED070A40E040F2F2
:102760003040C2F2000090ED040A90ED071AB4EE7A
:10277000410AF1EE10FA2BDAFFE740F23040C2F2E4
:10278000000090ED040A9DED301AB2EE002A21EE11
:10279000021A9FEDAA2A81EE021AB4EE410AF1EE66
:1027A00010FA15DCFFE79DED300ABAEE001A20EEB4
:1027B000010A9FEDA11A80EE011A40F23040C2F2E8
:1027C000000090ED070A30EE010A80ED070A06E0EE
:1027D00040F23041C2F200010869C861FFE7FFE73B
:1027E00040F23040C2F20000029090ED052A90EDD8
:1027F000061A90ED070A31EE021A9FED8E2A20EE9E
:10280000020A30EE010A80ED0D0A90ED051A90EDF6
:10281000063A90ED070A31EE431A20EE020A30EE36
:10282000010A80ED0E0A90ED053A90ED061A90ED42
:10283000070A31EE431A20EE020A30EE010A80ED5B
:102840000F0A90ED053A90ED061A90ED070AB1EEE9
:10285000411A31EE431A20EE020A30EE010A80EDF1
:10286000100A90ED0D0A9FED761A8DED001A80EE9C
:10287000010A40F6C811C2F200010191D1ED080A27
:102880008C3010F0DBF99DED001A0199029890ED63
:102890000E0A80EE010AD1ED130AD43010F0CEF901
:1028A0009DED001A0199029890ED0F0A80EE010A41
:1028B000D1ED1E0A00F58E7010F0C0F99DED001AE2
:1028C0000199029890ED100A80EE010AD1ED290AD3
:1028D00000F5B27010F0B2F940F6B470C2F2000028
:1028E00090F83300052813D1FFE740F23040C2F2E0
:1028F000000090ED320A9FED531A20EE010A80EDA0
:10290000320A90ED440A20EE010A80ED440AFFE706
:1029100040F6B470C2F2000090F83600012854D19D
:10292000FFE741F29700C2F20000408900EE100A72
:10293000B8EEC00A9FED451A30EE010A40F6B470B9
:10294000C2F2000090F83210C1EB0111490001EE13
:10295000101AB8EEC11A30EE010A40F23041C2F24C
:10296000000181ED010A90ED0E0AB2EE001AB4EEFC
:10297000410AF1EE10FA27DBFFE740F6B470C2F22D
:10298000000090ED0E0AB2EE081AB4EE410AF1EE24
:1029900010FA19DCFFE740F6B470C2F2000090EDC7
:1029A0000E0ABAEE001A30EE010AB5EE001A20EE59
:1029B000011A40F23040C2F2000090ED010A20EE10
:1029C000010A80ED010AFFE722E041F29700C2F21E
:1029D0000000408900EE100AB8EEC01A41F28000F3
:1029E000C2F20000008900EE100AB8EEC02A9FED86
:1029F000160A30EE420AB9EE042A20EE020A30EE40
:102A0000010A40F23040C2F2000080ED010AFFE707
:102A100040F23040C2F2000090ED010A40F6C811C9
:102A2000C2F2000110F006FA01201CF08BF8FFF74B
:102A3000D7BB00BFE605E03ECB839E3ECB839EBE68
:102A4000E08797399A99993E000020420000484259
:102A500080B582B0019032201CF074F8FFE70120AD
:102A60001CF070F8FBE7000040F6B471C2F2000100
:102A700091ED010A91ED061A9FED273A21EE031A16
:102A80009FED262A20EE020A30EE010A81ED010AAE
:102A900091ED020A91ED071A21EE031A20EE020AC7
:102AA00030EE010A81ED020A91ED030A91ED081A58
:102AB0009FED1B2A21EE021A9FED1A2A20EE020A30
:102AC00030EE010A81ED030A91ED040A91ED091A35
:102AD0009FED153A21EE031A9FED142A20EE020A0B
:102AE00030EE010A81ED040A91ED050A91ED0A1A12
:102AF00021EE031A20EE020A30EE010A81ED050AEA
:102B0000486888618868C861C8680862086948625E
:102B100048698862704700BF9A99193FCDCCCC3E76
:102B2000D0CCCC3D6666663FCCCC4C3ECDCC4C3F49
:102B300080B542F6BC50C2F2000002F059FF80BDE1
:102B400080B542F67C60C2F2000002F051FF80BD09
:102B500080B542F63C70C2F2000002F049FF80BD31
:102B600080B542F6FC70C2F2000002F041FF80BD69
:102B700080B543F2BC00C2F2000002F039FF80BD14
:102B800080B542F67C60C2F2000002F037FE80BDE4
:102B900084B003900398006840F20741C4F2020138
:102BA000884206D8FFE740F60000C4F20200009019
:102BB00005E040F62000C4F202000090FFE7009814
:102BC00002900398007808384CF6CD41CCF6CC4101
:102BD000A0FB011000090190029803994A6C22F0B1
:102BE000030210448864039940F68000C4F2020096
:102BF000C864019800F01F0101208840039908650E
:102C000004B0704782B0019001980079009000995B
:102C100040F6FC00C4F2020000EB81000199486517
:102C2000019940F64010C4F202008865009801380E
:102C300000F01F01012088400199C86502B070476B
:102C400084B003900291019200930398C16C006DCF
:102C500048600398406D28B1FFE70398816DC06D0F
:102C60004860FFE70398016C406C00F01F020120F0
:102C7000904048600098039909684860039880680C
:102C8000102809D1FFE70198039909688860029824
:102C900003990968C86008E0029803990968886088
:102CA000019803990968C860FFE704B07047000005
:102CB00086B08DED050ACDED040A8DED031A029064
:102CC0009DED030A9DED041A30EE410A8DED010AD7
:102CD000049800909DED050A9DED001A30EE410A22
:102CE000029901208840013801EE100AB8EEC11A9D
:102CF00020EE010A9DED011A80EE010ABDEEC00A28
:102D000010EE100A06B0704786B005908DED040AEB
:102D1000CDED030A02919DED030A9DED041A30EEFC
:102D2000410A8DED010A049800909DED050AB8EE68
:102D3000C00A9DED011A20EE010A02990120884087
:102D4000013801EE100AB8EEC11A80EE010A9DEDBD
:102D5000001A30EE010A06B07047000081B041F25F
:102D60000400CEF2000000680090009840F220417C
:102D7000C2F200010968884208D2FFE740F224410C
:102D8000C2F20001086801300860FFE7009840F2D5
:102D90002041C2F20001086001B0704783B08DEDA0
:102DA000020A41F20400CEF200000068019002988D
:102DB0000090FFE741F20400CEF2000000680199A4
:102DC000401A00EE100AB8EE400A9DED001A40F2DB
:102DD0000C40C2F2000090ED002AB8EE422A21EE2B
:102DE000021AB4EE410AF1EE10FA01DAFFE7E1E768
:102DF00003B0704780B584B0039041F20400CEF276
:102E0000000000680290029803990968401A00EED9
:102E1000100AB8EE400A40F20C40C2F2000090EDF9
:102E2000001AB8EE411A80EE010A8DED010A0298EF
:102E300003990860FFF792FF9DED010A04B080BD81
:102E400080B582B000F06CF841F2C430C2F20000EC
:102E500090ED000AB8EE401A818800EE101AB8EE24
:102E6000C00A9FED0B2A20EE020A30EE011AC0883C
:102E700000EE100AB8EEC00A9FED062A20EE020A04
:102E800030EE010A8DED010A9DED010A02B080BD10
:102E90006F12833ABD37863581B000904EF6FC51F3
:102EA000CEF20001086840F08070086041F2040131
:102EB000CEF200010020086041F20002CEF20002D2
:102EC000116841F001011160009944F24022C0F202
:102ED0000F024A4340F20C41C2F200010A600A6844
:102EE00044F6D353C1F26203A2FB0332920940F2CB
:102EF0001043C2F200031A6009684DF68362C4F2FF
:102F00001B32A1FB0221890C40F21442C2F20002E2
:102F1000116040F22441C2F20001086001B0704724
:102F2000B0B586B041F20400CEF200000068059012
:102F3000FFF714FF40F22440C2F200000168059838
:102F4000002302934FF0FF3C1A46E1FB0C0240F2D3
:102F50001841C2F2000100914A600860086849689F
:102F600040F20C44C2F200042268FDF751F9029BC2
:102F700002468C46009940F21060C2F20000C0F890
:102F800004C00260D1F800C04968D0F800E042688F
:102F90002468AEFB04E502FB0452BCEB0E0C61EBB3
:102FA000020240F21861C2F200010391C1F800C0B0
:102FB0004A60006841F2C432C2F20002049210601A
:102FC0000868496840F21042C2F200020192126899
:102FD000FDF71EF9DDF804C0029B049A0146039830
:102FE0009180016840689288DCF800C002FB0CF216
:102FF0008A1A60F1000040F22061C2F200010A600A
:1030000048600868496840F21442C2F2000212683F
:10301000FDF7FEF80499C88006B0B0BD7047000007
:1030200083B0029001910092009890ED004A90EDDB
:10303000012A90ED026A90ED035A26EE060AB6EEDA
:10304000001A31EE400A25EE053A30EE437A029836
:1030500024EE053A22EE060A30EE030AD0ED000A0D
:10306000D0ED011A90ED023A20EE210A27EE207AE7
:1030700030EE070A24EE064A22EE052A32EE442AF2
:1030800022EE032A30EE020A30EE000A019880EDAB
:10309000000A009890ED004A90ED016A90ED020A56
:1030A00090ED035A24EE053A26EE002A32EE432A2A
:1030B000029826EE063A31EE433A25EE057A33EED3
:1030C000477AD0ED000AD0ED011A90ED023A27EED2
:1030D000217A22EE202A32EE072A24EE064A20EE3A
:1030E000050A30EE040A20EE030A30EE020A30EE42
:1030F000000A019880ED010A009890ED005A90EDC9
:10310000014A90ED023A90ED032A25EE036A24EE7F
:10311000020A30EE060A029825EE045A23EE022A2D
:1031200032EE455A90ED006A90ED017A90ED022A58
:1031300025EE075A20EE060A30EE050A24EE044A70
:1031400031EE441A23EE033A31EE431A21EE021A0D
:1031500030EE010A30EE000A019880ED020A03B059
:103160007047000081B0EFF3108072B60090FFE767
:10317000FEE7000080B543F27C10C2F2000003F0CD
:1031800039F980BD80B543F27C10C2F2000003F033
:1031900031F980BD80B543F2E010C2F2000003F0C7
:1031A00029F980BD80B543F2E010C2F2000003F0BF
:1031B00021F980BD80B543F24420C2F2000003F043
:1031C00019F980BD80B543F24420C2F2000003F03B
:1031D00011F980BD83B002904AF20040C4F20000B1
:1031E00000900298006846F60001C4F2000188428F
:1031F00005D1FFE7009800F554700090FFE70298B2
:10320000006846F60041C4F20001884205D1FFE79C
:10321000009800F5D4600090FFE7009802990864D8
:1032200002980068D0F8800020F4F810029A116823
:10323000526B40EA0240C1F8800000987030029959
:10324000486402980068D0F8800020F07060029A0C
:103250001168926B40EA0260C1F880000098B030BB
:1032600002998864009800F5C4700299C8640098B7
:1032700000F5187002990865009800F51E70029913
:10328000486500980190FFE70198009901F5547195
:10329000884208D2FFE7019900200860FFE7019803
:1032A00004300190F0E703B07047000088B0079049
:1032B0000691059204930698406848B9FFE706987E
:1032C000016882680069104340EA8140039009E088
:1032D00006980168826800691043084340F0804006
:1032E0000390FFE70698D0F820C0C168426983695F
:1032F000C06940EA0C601843104340EA0140029064
:103300000798406D049901EBC10100EBC1000190E9
:10331000039801990860019804300190029801997E
:10332000086001980430019000200090FFE70098A9
:103330000699CA6841F6F461C0F60201895C8842C8
:103340000DD2FFE70598009940580199086001984F
:1033500004300190FFE7009804300090E7E708B0E0
:103360007047000080B588B08DF81F0003F0C2FFE1
:10337000FFE742F21001C4F202014FF4004008607E
:10338000FFE7002002900390022104919DF81F1096
:103390000591012106918DF80700FFE79DF80700D0
:1033A0001D280EDCFFE703A802A903F021FE08B9DF
:1033B000FFE706E0FFE79DF8070001308DF8070002
:1033C000ECE703F0E9FE08B080BD000081B040F2F8
:1033D0004420C2F20000007F8DF803009DF8030036
:1033E000012805D0FFE79DF8030003281FD1FFE760
:1033F00042F20001C4F20201086820F40070086083
:10340000FFE742F20001C4F20201086840F40060E4
:103410000860086820F400600860FFE742F20001DD
:10342000C4F20201086840F400700860FFE79DF8EC
:103430000300022805D0FFE79DF80300032817D1F9
:10344000FFE7FFE742F20001C4F20201086840F41E
:1034500080500860086820F480500860FFE742F25E
:103460000001C4F20201086840F480600860FFE7D0
:1034700040F24421C2F200010020087701B07047F9
:1034800081B0009042F22000C4F2020000684002C5
:1034900000281ED5FFE79DF80000C00748B1FFE7F0
:1034A00042F21401C4F20201086840F0040008600E
:1034B000FFE79DF800008007002809D5FFE742F2EA
:1034C0001401C4F20201086840F400400860FFE7FC
:1034D00009E042F21401C4F20201086848F2040251
:1034E00010430860FFE742F21401C4F202010868C9
:1034F00040F48030086001B07047000082B0019055
:10350000009142F22000C4F202000068400200284C
:1035100009D4FFE742F21401C4F20201086820F462
:103520000060086017E09DF80000C00748B1FFE7A1
:1035300042F21401C4F20201086820F4006008603D
:1035400008E042F21401C4F20201086840F400608D
:103550000860FFE7FFE742F21401C4F202010868C5
:1035600020F47E709DF8042040EAC20008600868DC
:1035700040F002000860086840F48030086002B043
:103580007047000084B003900193009242F214014E
:10359000C4F20201086840F0010008600098039935
:1035A0000860BFF36F8F01980399486004B07047BB
:1035B00089B00590049140208DF80F000598029085
:1035C0000498019042F21401C4F20201086840F428
:1035D00080200860EFF31080069006980090EFF3CB
:1035E000108072B60790FFE70198006802990860A2
:1035F0000298043002900198043001909DF80F0069
:1036000001388DF80F00FFE79DF80F000028EBD17F
:10361000FFE700980890089880F3108809B0704779
:1036200080B584B0029004F073F80190FFE742F295
:103630001000C4F202000068C00300280DD5FFE7A7
:1036400004F066F80199401A0299884204D9FFE70C
:1036500003208DF80F005AE0E9E742F21000C4F2AF
:10366000020000684CF2FA3108400090009860B304
:10367000FFE7009A40F24421C2F20001486810437B
:103680004860FFE79DF8030010F0F00F0BD0FFE754
:10369000009800F0704242F21801C4F2020108687A
:1036A00010430860FFE70098000148B1FFE7009869
:1036B00020F0704042F21001C4F202010860FFE7FE
:1036C000FFE701208DF80F0021E0012050B9FFE74E
:1036D00042F21800C4F20200006800F00100012864
:1036E00008D010E042F21000C4F202000068C007E7
:1036F00048B1FFE7FFE742F21001C4F202010120E6
:103700000860FFE7FFE700208DF80F00FFE79DF856
:103710000F0004B080BD000080B586B00590039313
:10372000029203F0E7FDFFE742F21001C4F202014A
:103730004FF400400860FFE7FFE742F21001C4F2D7
:1037400002014FF480300860FFE700208DF8070089
:10375000FFE79DF807001D2810DCFFE70599029A96
:10376000039B002003F030FD08B9FFE706E0FFE708
:103770009DF8070001308DF80700EAE703F00CFD23
:1037800006B080BD0000000080B541F2E800C2F242
:103790000000806FFCF7D0FF41EC100B9FED861B03
:1037A00050EC111BC20F51EC100B62F3DF7141ECB6
:1037B000100B51EC100B9FED820B53EC102BFCF710
:1037C00014FF002871D1FFE740F6C810C2F20000D4
:1037D000D0F82801FCF7B0FF41EC100B9FED761BF1
:1037E00050EC111BC20F51EC100B62F3DF7141EC76
:1037F000100B51EC100B9FED740B53EC102BFCF7DE
:103800000FFF002851D1FFE741F2E800C2F20000AB
:10381000D0F8C000FCF790FF41EC100B9FED661B49
:1038200050EC111BC20F51EC100B62F3DF7141EC35
:10383000100B51EC100B9FED620B53EC102BFCF7AF
:10384000D4FE90BBFFE740F6C810C2F20000D0F8EB
:103850005401FCF771FF41EC100B9FED571B50EC2E
:10386000111BC20F51EC100B62F3DF7141EC100B16
:1038700051EC100B9FED540B53EC102BFCF7D0FECA
:1038800098B9FFE741F2E800C2F2000090F8CE02DA
:1038900050B9FFE741F2E801C2F20001B1F8D002ED
:1038A0000130A1F8D002FFE707E041F2E801C2F2DF
:1038B00000010020A1F8D002FFE741F2E800C2F2C7
:1038C0000000B0F8D002B0F5FA7F0DDBFFE741F25F
:1038D000E801C2F20001012081F8CE020020A1F827
:1038E000D202A1F8D002FFE741F2E800C2F20000E4
:1038F00090F8CE0200285DD0FFE741F2E800C2F266
:103900000000B0F8D202012825D1FFE740F6C81028
:10391000C2F20000D0F890314CF60931C8F63D51A2
:1039200051FB0332911101EBD271742201FB123170
:10393000C0F8901190ED670A9FED251A80EE010AFC
:1039400041F2E800C2F2000080ED0D0A9FED210A6D
:1039500011F024F9FFE741F2E800C2F20000B0F8EC
:10396000D202B0F57A7F11DAFFE740F6B471C2F205
:103970000001032081F8310041F2E801C2F20001A8
:10398000B1F8D2020130A1F8D20212E041F2E8010E
:10399000C2F20001002081F8CE02A1F8D002A1F805
:1039A000D20240F6B471C2F20001012081F8310068
:1039B000FFE7FFE780BD00BF00000000000000003F
:1039C000000000000088C3400000000000005940D3
:1039D000F1F0E8429A99993E84B002A8009041F231
:1039E0009000C2F20000D0F8030000EE100A40F28E
:1039F000F830C2F2000090ED001AB4EE410AF1EE88
:103A000010FA77D0FFE741F29000C2F20000D0F840
:103A1000030000EE100AB2EE081AB4EE410AF1EE0D
:103A200010FA67DDFFE741F29000C2F20000D0F823
:103A3000030000EE100AB3EE001AB4EE410AF1EEF4
:103A400010FA57DAFFE704208DF80F00FFE79DF822
:103A50000F00012813DBFFE79DF80F2040F2E4314F
:103A6000C2F2000101EB820050F8040C41F8220080
:103A7000FFE79DF80F0001388DF80F00E7E741F2EE
:103A80009000C2F20000D0F8030040F2E431C2F22C
:103A900000010860002002908DF80700FFE79DF804
:103AA0000700042818DCFFE700989DF8072040F283
:103AB000E431C2F2000101EB820191ED001A90EDB8
:103AC000000A30EE010A80ED000AFFE79DF80700CA
:103AD00001308DF80700E2E7009890ED000AB1EEA2
:103AE000041A80EE010A40F21400C2F2000080EDD8
:103AF000000AFFE741F29000C2F20000D0F8030094
:103B000040F2F831C2F20001086004B070470000D2
:103B100080B586B040F6B470C2F2000090F8330071
:103B200038B9FFE740F6B471C2F200010020C86066
:103B3000E8E040F6B470C2F2000090F833000128CB
:103B400007D1FFE740F6B471C2F200010020C8605F
:103B5000D7E040F6B470C2F2000090F833000228BB
:103B600015D1FFE740F6B470C2F200000590D0ED29
:103B70000B0A41F20000C2F2000004909FED620ABD
:103B80000FF05CF804980599C06BC860B8E040F687
:103B9000B470C2F2000090F83300032823D1FFE78D
:103BA00040F6B470C2F20000039090F8351000EEB9
:103BB000101AB8EEC00ABEEE001A30EE010A30EE5E
:103BC000000A9FED521A20EE010AD0ED0B0A41F2D5
:103BD0000000C2F2000002900FF030F80298039942
:103BE000C06BC8608BE040F6B470C2F2000090F881
:103BF0003300042839D1FFE740F6B470C2F2000068
:103C000090F8340040B1FFE740F6B471C2F2000111
:103C10004FF08140C86008E040F6B471C2F2000184
:103C20000020CCF28000C860FFE740F6B470C2F21A
:103C3000000090ED030A90F8321001EE101AB8EE71
:103C4000C11AB7EE002A31EE021A20EE010AB1EED7
:103C5000081A80EE010A80ED030A40F6C811C2F28C
:103C600000010020C1F8E00048E040F6B470C2F264
:103C7000000090F8330005283FD1FFE740F6B4700C
:103C8000C2F2000090ED0B0AB1EE041AB4EE410A44
:103C9000F1EE10FA0EDCFFE740F6B470C2F200005D
:103CA00090ED0B0AB9EE041AB4EE410AF1EE10FAE7
:103CB00018DAFFE740F6B470C2F20000019002216A
:103CC00080F83310D0ED0B0A41F20000C2F2000080
:103CD00000909FED0D0A0EF0B1FF00980199C06BA6
:103CE000C86009E040F6B471C2F20001052081F815
:103CF00033000020C860FFE7FFE7FFE7FFE7FFE7CB
:103D0000FFE7FFE706B080BD00000000000034427E
:103D100080B584B047F29050C1F6FF700068039000
:103D200047F29450C1F6FF700068029047F2985035
:103D3000C1F6FF7000680190019903980844039050
:103D4000039888B1FFE7039840F22821C2F20001EE
:103D50000091023108220BF00BFD009902981231FC
:103D600004220BF005FDFFE704B080BD80B582B0F2
:103D7000019001981C30FFF73DF88DED000A019885
:103D800090ED040A90ED051A30EE410A9DED001AFF
:103D900080EE010A9FED071A20EE010A9FED061A38
:103DA00080EE010A80ED060A01990869486102B0B7
:103DB00080BD00BF000070420000B44380B58CB0ED
:103DC0000B9040F24060C2F20000089020309FED5E
:103DD000BA0A9FEDBA1A9FEDBA2A8DED092ADFEDD6
:103DE000B92ACDED072AF0EE420AF0EE421A0EF0A3
:103DF00003FFDDED072A08989DED092A6830B1EE32
:103E0000040AF0EE420AB0EE421AF0EE421A0EF048
:103E1000F3FE08989DED092AB0309FEDAB0A9FEDA7
:103E2000AB1ADFEDAB2ACDED0A2AF0EE420AF0EE36
:103E3000421A0EF0E1FE08989DED092ADDED0A2AEE
:103E4000F8309FEDA40AF0EE420AB0EE421AF0EE0E
:103E5000421A0EF0D1FEFFE740F63011C2F2000127
:103E60008A6840F24060C2F20000C2618A698260E2
:103E700040F6B472C2F2000292F83020027091ED66
:103E8000010A40F26031C2F20001D1F8091001EEDE
:103E9000101A30EE410A80ED050A90ED050A9FEDFB
:103EA0008E1AB4EE410AF1EE10FA0DDDFFE740F292
:103EB0004060C2F2000090ED050A9FED8A1A30EED4
:103EC000010A80ED050A1BE040F24060C2F20000EA
:103ED00090ED050A9FED811AB4EE410AF1EE10FA59
:103EE0000DDAFFE740F24060C2F2000090ED050AF3
:103EF0009FED7B1A30EE010A80ED050AFFE7FFE730
:103F000040F24060C2F20000007802281FD1FFE7B3
:103F100040F26030C2F20000407CC0B1FFE740F2E6
:103F20004060C2F2000090ED020A90ED051A30EEFA
:103F3000410A40F6B471C2F2000181ED040A40F278
:103F40006030C2F20000D0F805004861FFE740F69B
:103F5000B471C2F200014A6940F24060C2F200004E
:103F600082610969416040F6C811C2F20001D1F8CE
:103F7000E410016190ED040A9FED571AB4EE410A76
:103F8000F1EE10FA0DDBFFE740F24060C2F20000F4
:103F900090ED041A9FED520A30EE410A80ED040ABA
:103FA000FFE740F24060C2F2000090ED040A9FED8E
:103FB0004B1AB4EE410AF1EE10FA0DDCFFE740F2C5
:103FC0004060C2F2000090ED040A9FED451A30EE09
:103FD000010A80ED040AFFE740F24060C2F20000EF
:103FE0000590016940F6B472C2F200020692D162F5
:103FF00090ED010AD0ED020A20300EF01FFE059868
:1040000090ED170A40F6C811C2F200010491D1EDFB
:104010003D0A68300EF012FE059890ED060AD0EDCC
:10402000070AB0300EF00AFE0499059890ED3B0A9D
:10403000D1ED320AF8300EF001FE0698007878B320
:10404000FFE740F63010C2F20000007840B3FFE70F
:1040500040F24060C2F20000029090ED290ABDEEED
:10406000C00A10EE102A684600234360036043F242
:10407000E010C2F2000003904FF4FF710EF02CF834
:104080000299039891ED4D2A1021DFED0D1AB0EE43
:10409000610AF0EE610AB0EE611A0EF01BF907E05A
:1040A00043F2E010C2F2000010210EF0EBF8FFE73F
:1040B00001201AF047FDCFE60080BB440050C34604
:1040C0000000000000606A460000FA4400409C4680
:1040D0000080BB456F12833A00003443000034C3B4
:1040E0000000B4430000B4C380B5AEB02C902B9157
:1040F00000208DF8AB002B98006808B1FFE7FFE7C0
:10410000FFE72C9890F85800012804D1FFE702201F
:104110008DF8B7005DE12C99012081F85800FFE788
:10412000FFE70020259026902C980068B0F1A04F62
:1041300006D1FFE740F20010C5F200000E9015E036
:104140002C98006840F20041C5F20001884207D176
:10415000FFE740F20050C5F200000E900C9003E023
:1041600000200E900C90FFE70C98FFE70E9878B9AE
:10417000FFE72C99C86D40F02000C865FFE72C9937
:10418000002081F85800FFE701208DF8B70020E1FA
:104190000E980CF025FE0D902C9800680CF020FE77
:1041A000002840F00281FFE70D98002840F0FD80D4
:1041B000FFE72C9801680120B1F1A04F0B900CD0C3
:1041C000FFE72C9800684FF60071CAF6FF710844AB
:1041D000B0FA80F040090B90FFE70B98C10740F25E
:1041E0000070C5F2000000291CBF40F20030C5F28B
:1041F000000029902B980068002872D0FFE72998CA
:10420000806820F460402B9949682C9A92F83820F5
:1042100041EA42310843299988602C9801680120BD
:10422000B1F1A04F0A900CD0FFE72C9800684FF630
:104230000071CAF6FF710844B0FA80F040090A9094
:10424000FFE70A98C10740F20070C5F2000000299C
:104250001CBF40F20030C5F2000040F20031C5F250
:104260000001884210D1FFE74FF0A0400CF0A0FD04
:10427000089040F20010C5F200000CF099FD0146D4
:104280000898084309901BE040F20040C5F2000086
:104290000CF08EFD069040F20050C5F200000CF0CC
:1042A00087FD014606980843079040F20060C5F27A
:1042B00000000CF07DFD0146079808430990FFE7D8
:1042C000099868B9FFE72998806840F61F7188430C
:1042D0002B9A116892681143084329998860FFE777
:1042E00062E02999886820F4604088602C98016811
:1042F0000120B1F1A04F05900CD0FFE72C98006889
:104300004FF60071CAF6FF710844B0FA80F0400918
:104310000590FFE70598C10740F20070C5F2000064
:1043200000291CBF40F20030C5F2000040F200310D
:10433000C5F20001884210D1FFE74FF0A0400CF019
:1043400037FD039040F20010C5F200000CF030FD84
:1043500001460398084304901BE040F20040C5F278
:1043600000000CF025FD019040F20050C5F2000065
:104370000CF01EFD014601980843029040F20060D7
:10438000C5F200000CF014FD0146029808430490A9
:10439000FFE7049838B9FFE72999886840F61F724B
:1043A00090438860FFE7FFE708E02C99C86D40F074
:1043B0002000C86501208DF8AB00FFE7FFE72C99CE
:1043C000002081F85800FFE79DF8AB008DF8B7009A
:1043D000FFE79DF8B7002EB080BD000080B5C4B0E7
:1043E0002490239100208DF88B001F902398C068A3
:1043F0000021C4F27F01884201D0FFE700E0FFE71F
:10440000FFE7249890F85800012805D1FFE7022023
:104410008DF8970000F059BC2499012081F85800CC
:10442000FFE7FFE7249800680CF0D2FC002840F07A
:104430003884FFE72498006823990A6849680CF0DB
:10444000D7FC249800680CF0C3FC1E9024980068E8
:104450000CF096FC1D901E98002840F0B881FFE7F4
:104460001D98002840F0B381FFE723988068B0F1E1
:10447000004F0ED1FFE724980068239909680022B5
:104480000CF0D4FC249800684FF000410CF07AFD49
:104490000CE024980068239A116892680CF0C6FC1E
:1044A0002498006800210CF06DFDFFE72398406917
:1044B00024990968C96801F0180189088840219089
:1044C0002398006904281CD0FFE7249800682399EA
:1044D0000A680969219B0CF0FBFC24980068239A68
:1044E000116992690CF026FD24980068239A1169DD
:1044F000127F013AB2FA82F2520952060CF006FD1E
:1045000064E12498006800210CF02AFC400348B9BB
:10451000FFE72498006800210CF022FCC0F38460BF
:104520001C9018E02498006800210CF019FC90FA07
:10453000A0F04290429820B9FFE720208DF80F01AB
:1045400005E04298B0FA80F08DF80F01FFE79DF882
:104550000F011C90FFE71C981B90239800684003F4
:1045600030B9FFE723980068C0F384601A9015E023
:104570002398006890FAA0F04090409820B9FFE797
:1045800020208DF8070105E04098B0FA80F08DF802
:104590000701FFE79DF807011A90FFE71B981A999A
:1045A000884207D1FFE724980068002211460CF0EA
:1045B000D5FCFFE72498006801210CF0D1FB4003F3
:1045C00048B9FFE72498006801210CF0C9FBC0F34B
:1045D0008460199018E02498006801210CF0C0FB59
:1045E00090FAA0F03E903E9820B9FFE720208DF889
:1045F000FF0005E03E98B0FA80F08DF8FF00FFE77D
:104600009DF8FF001990FFE719981890239800680B
:10461000400330B9FFE723980068C0F38460179027
:1046200015E02398006890FAA0F03C903C9820B9DF
:10463000FFE720208DF8F70005E03C98B0FA80F005
:104640008DF8F700FFE79DF8F7001790FFE718983F
:104650001799884207D1FFE72498006801210022BA
:104660000CF07CFCFFE72498006802210CF078FB3A
:10467000400348B9FFE72498006802210CF070FB62
:10468000C0F38460169018E02498006802210CF0B2
:1046900067FB90FAA0F03A903A9820B9FFE7202003
:1046A0008DF8EF0005E03A98B0FA80F08DF8EF0051
:1046B000FFE79DF8EF001690FFE7169815902398F6
:1046C0000068400330B9FFE723980068C0F38460B6
:1046D000149015E02398006890FAA0F0389038986C
:1046E00020B9FFE720208DF8E70005E03898B0FA00
:1046F00080F08DF8E700FFE79DF8E7001490FFE7F2
:1047000015981499884207D1FFE724980068022180
:1047100000220CF023FCFFE72498006803210CF032
:104720001FFB400348B9FFE72498006803210CF001
:1047300017FBC0F38460139018E0249800680321ED
:104740000CF00EFB90FAA0F03690369820B9FFE7F7
:1047500020208DF8DF0005E03698B0FA80F08DF863
:10476000DF00FFE79DF8DF001390FFE7139812903A
:1047700023980068400330B9FFE723980068C0F32E
:104780008460119015E02398006890FAA0F03490AE
:10479000349820B9FFE720208DF8D70005E0349841
:1047A000B0FA80F08DF8D700FFE79DF8D7001190A0
:1047B000FFE712981199884207D1FFE72498006813
:1047C000032100220CF0CAFBFFE7FFE7FFE7249874
:1047D00000680CF0E5FA002840F04481FFE72498D7
:1047E0000068239A1168D2680CF03CFB2398C068DB
:1047F0000021C4F27F01884240F03381FFE7249812
:104800000068109023980068400330B9FFE72398B0
:104810000068C0F384600F9015E02398006890FA58
:10482000A0F03290329820B9FFE720208DF8CF0019
:1048300005E03298B0FA80F08DF8CF00FFE79DF8E0
:10484000CF000F90FFE70F98013000F01F000928FC
:104850007DD8FFE723980068400330B9FFE723982D
:104860000068C0F384600E9015E02398006890FA09
:10487000A0F03090309820B9FFE720208DF8C700D5
:1048800005E03098B0FA80F08DF8C700FFE79DF89A
:10489000C7000E90FFE70E98013000F01F00800661
:1048A0000D9023980068400330B9FFE72398006813
:1048B000C0F384600C9015E02398006890FAA0F093
:1048C0002E902E9820B9FFE720208DF8BF0005E03C
:1048D0002E98B0FA80F08DF8BF00FFE79DF8BF007A
:1048E0000C90FFE70D980C99013101F01F02012196
:1048F000914008430B9023980068400330B9FFE7CC
:1049000023980068C0F384600A9015E0239800683B
:1049100090FAA0F02C902C9820B9FFE720208DF879
:10492000B70005E02C98B0FA80F08DF8B700FFE7EB
:104930009DF8B7000A90FFE70B980A99013101F042
:104940001F0101EB410140EA0150099082E02398E8
:104950000068400330B9FFE723980068C0F3846023
:10496000089015E02398006890FAA0F02A902A9801
:1049700020B9FFE720208DF8AF0005E02A98B0FAB3
:1049800080F08DF8AF00FFE79DF8AF000890FFE7DB
:104990000898013000F01F008006079023980068F7
:1049A000400330B9FFE723980068C0F384600690A5
:1049B00015E02398006890FAA0F02890289820B974
:1049C000FFE720208DF8A70005E02898B0FA80F0D6
:1049D0008DF8A700FFE79DF8A7000690FFE707986E
:1049E0000699013101F01F02012191400843059011
:1049F00023980068400330B9FFE723980068C0F3AC
:104A00008460049015E02398006890FAA0F0269046
:104A1000269820B9FFE720208DF89F0005E0269812
:104A2000B0FA80F08DF89F00FFE79DF89F0004909A
:104A3000FFE705990498013000F01F0000EB4002E9
:104A40000020CFF6206000EB0250084340F00070D9
:104A50000990FFE710980999239A92680CF0E6F9FB
:104A6000FFE7FFE72398408848F20801084200F07A
:104A70001781FFE7249801680120B1F1A04F03904E
:104A80000CD0FFE7249800684FF60071CAF6FF715A
:104A90000844B0FA80F040090390FFE70398C1078B
:104AA00040F20070C5F2000000291CBF40F2003047
:104AB000C5F200000CF04CF920902398006840F2F9
:104AC0000001CCF22131884208D0FFE7239800682A
:104AD0001021C9F2C00188425AD1FFE79DF8820037
:104AE0000006002854D4FFE724980068B0F1A04FD6
:104AF00009D0FFE72498006840F20061C5F2000188
:104B0000884244D1FFE7249801680120B1F1A04F09
:104B100002900CD0FFE7249800684FF60071CAF6A7
:104B2000FF710844B0FA80F040090290FFE7029854
:104B3000C10740F20070C5F2000000291CBF40F21E
:104B40000030C5F20000209941F400010CF0B2F9E8
:104B500040F2E800C2F2000000684FEA901042F60E
:104B60006351C0F23E51A0FB01104FEA901000EBE0
:104B700040014FF00C0000EB81001F90FFE71F98F1
:104B800020B1FFE71F9801381F90F8E7FFE786E0A4
:104B9000239800680021CCF2527188423ED1FFE791
:104BA0009DF88300C007C8BBFFE72498006840F267
:104BB0000011C5F20001884209D1FFE7249800687E
:104BC00040F20051C5F20001884226D0FFE7249848
:104BD00001680120B1F1A04F01900CD0FFE72498AB
:104BE00000684FF60071CAF6FF710844B0FA80F011
:104BF00040090190FFE70198C10740F20070C5F23B
:104C0000000000291CBF40F20030C5F200002099CE
:104C100041F080710CF04EF9FFE73FE02398006807
:104C20000021CCF68431884236D1FFE79DF882001E
:104C30004006002830D4FFE72498006840F20011B5
:104C4000C5F20001884226D0FFE7249801680120C0
:104C5000B1F1A04F00900CD0FFE7249800684FF608
:104C60000071CAF6FF710844B0FA80F04009009064
:104C7000FFE70098C10740F20070C5F2000000296C
:104C80001CBF40F20030C5F20000209941F48001C1
:104C90000CF010F9FFE700E0FFE7FFE7FFE7FFE7B1
:104CA00008E02499C86D40F02000C86501208DF807
:104CB0008B00FFE7FFE72499002081F85800FFE709
:104CC0009DF88B008DF89700FFE79DF8970044B0A2
:104CD00080BD000080B58EB00C9000208DF82F00B4
:104CE00007900C9820B9FFE701208DF83700DCE130
:104CF0000C98406940B1FFE70C9890F82400012817
:104D000001D1FFE7FFE7FFE70C98C06D50B9FFE75F
:104D10000C9800F0CFF90C99002008660C9981F8E6
:104D20005800FFE70C9800680CF032F828B1FFE754
:104D30000C9800680BF0F0FFFFE70C9800680CF08F
:104D40003FF8F0B9FFE70C9800680BF0F1FF40F274
:104D5000E800C2F200000068800942F66351C0F228
:104D60003E51A0FB01108109022000EB4100079099
:104D7000FFE7079820B1FFE7079801380790F8E7A9
:104D8000FFE70C9800680CF01BF870B9FFE70C996E
:104D9000C86D40F01000C8650C99086E40F0010025
:104DA000086601208DF82F00FFE70C9800680CF0D2
:104DB0000FF809900C98C06DC006002800F16781BB
:104DC000FFE70998002840F06281FFE70C98C06D6A
:104DD00040F0020020F480700C99C8650C980068BF
:104DE0000BF0DEFF00287CD1FFE70C980168012062
:104DF000B1F1A04F06900CD0FFE70C9800684FF679
:104E00000071CAF6FF710844B0FA80F040090690BC
:104E1000FFE70698C10740F20070C5F200000029C4
:104E20001CBF40F20030C5F2000040F20031C5F274
:104E30000001884210D1FFE74FF0A0400BF0B0FF17
:104E4000049040F20010C5F200000BF0A9FF0146EB
:104E50000498084305901BE040F20040C5F20000B2
:104E60000BF09EFF029040F20050C5F200000BF0E4
:104E700097FF014602980843039040F20060C5F294
:104E800000000BF08DFF0146039808430590FFE7F3
:104E9000059828BBFFE70C9801680120B1F1A04FED
:104EA00001900CD0FFE70C9800684FF60071CAF62D
:104EB000FF710844B0FA80F040090190FFE70198C3
:104EC000C10740F20070C5F2000000291CBF40F28B
:104ED0000030C5F200000C9949680BF0DDFFFFE7D8
:104EE000FFE70C994A7FC86B40EA42308A68CB687A
:104EF0001843104391F8241040EA01400A900C989E
:104F000090F8240001280BD1FFE70C98816A00205B
:104F1000CFF6FE7000EB41410A9808430A90FFE784
:104F20000C98C06A50B1FFE70C99C86A096B00F48D
:104F3000787001430A9808430A90FFE70C980068CC
:104F4000C06844F20701CFF6F07108400A9908439F
:104F50000C990968C8600C980068006920F04060EE
:104F60000C9A1168526B104308610C9800680BF0A2
:104F700007FF08900998002868D1FFE708980028E3
:104F800064D1FFE70C99087F91F83810800340EA5C
:104F900041000A900C980068C06844F202018843FE
:104FA0000A9908430C990968C8600C980069A0B177
:104FB000FFE70C980168086940F4803008610C989C
:104FC0000068D0F8C00043F6FF7188430C9A11685E
:104FD00012691043C1F8C00011E00C98016808691B
:104FE00020F4803008610C980068D0F8C00043F6C7
:104FF000FF7188430C990968C1F8C000FFE70C985D
:1050000090F84000012819D1FFE70C98006800696A
:1050100040F2FD7120EA01020C9B1968586CD3F82C
:1050200048E0D3F84CC040EA0E0040EA0C001B6D8B
:105030001843104340F00100086106E00C98016835
:10504000086920F001000861FFE7FFE70C9840695C
:1050500001280CD1FFE70C980068006B20F00F00CE
:105060000C9A1168126A013A1043086306E00C9822
:105070000168086B20F00F000863FFE70C98C06D13
:1050800040F0010020F002000C99C86508E00C997E
:10509000C86D40F01000C86501208DF82F00FFE7B3
:1050A0009DF82F008DF83700FFE79DF837000EB010
:1050B00080BD000080B59EB01D9000201C901B900C
:1050C0001A901990189003A85421FBF7EBF81D983B
:1050D000006840F20041C5F2000188423AD1FFE782
:1050E0004FF4803003904FF00040159003A804F077
:1050F000E9F918B1FFE7FEF735F8FFE7FFE741F2FE
:105100004C00C4F20200016841F480410160006873
:1051100000F4804002900298FFE7FFE741F24C0064
:10512000C4F20200016841F010010160006800F063
:10513000100001900198FFE780201890032019903B
:1051400000201A9041F20000C4F6000018A902F0F5
:10515000FDF8FFE71EB080BD87B006900591049270
:1051600000208DF80F001F2002909DF81400C0074A
:1051700020B9FFE701208DF80F004BE0FFE702990F
:10518000481E02900020019051B1FFE70598029956
:1051900001F01F0120FA01F1012088430190FFE78F
:1051A0000198C00708B1FFE7E9E7049800901828C4
:1051B0002BD80099DFE801F0282929292929292954
:1051C0001F2929292929292916292929292929296C
:1051D0000D000298072804D3FFE701208DF80F0087
:1051E000FFE716E00298082804D3FFE701208DF8B6
:1051F0000F00FFE70DE00298102804D3FFE701201D
:105200008DF80F00FFE704E003E001208DF80F00A8
:10521000FFE7FFE79DF80F0078B9FFE705980699CB
:105220000968486106980068806820F018000499B1
:105230000843069909688860FFE79DF80F0007B0EA
:105240007047000080B582B00090009820B9FFE759
:1052500001208DF8070057E00098407F38B9FFE73C
:10526000009900200877009800F052F8FFE70099B5
:10527000022048770098007980B9FFE7009801681C
:1052800041F6B750C0F2C14048610098006880689C
:1052900020F018000099096888600BE00098816888
:1052A000C268FFF759FF20B1FFE701208DF8070022
:1052B0002AE0FFE70098407930B9FFE700980168DD
:1052C0004FF0FF30086104E0009801680069086150
:1052D000FFE700980068806820F06000009A11687D
:1052E00052691043886000980068806820F0800050
:1052F000009A1168926910438860009901204877EC
:1053000000208DF80700FFE79DF8070002B080BD80
:1053100082B001900198006843F20001C4F20201DA
:10532000884210D1FFE7FFE741F24800C4F20200D3
:10533000016841F480510160006800F480500090E1
:105340000098FFE7FFE702B07047000080B58AB021
:1053500008900791069200208DF81700089818B160
:10536000FFE7079820B9FFE701208DF82700B5E196
:105370000798C069012801D1FFE7FFE70798806817
:10538000042801D1FFE706E007984069022801D10F
:10539000FFE7FFE7FFE7FFE708984079012804D11E
:1053A000FFE702208DF8270098E108990120487155
:1053B000FFE7FFE708990220087107988068042832
:1053C00078D1FFE702F0A4F90290069848BBFFE706
:1053D000FFE708980068406B000400281BD5FFE732
:1053E00002F096F90299401A022813D3FFE70898B1
:1053F0000068406B000400280BD5FFE70899086996
:1054000040F0080008610899032008718DF8270012
:1054100064E1FFE7DDE70798406A089909680864D6
:1054200026E0FFE708980068406BC00FD0B1FFE7A7
:1054300002F06EF90299401A022812D3FFE7089889
:105440000068406BC00F58B1FFE70899086940F049
:10545000080008610899032008718DF827003DE1D4
:10546000FFE7DFE70798406A089909684864FFE7A3
:1054700008980068806C069901F0100240F2FF3134
:10548000914088430799896A9140084308990968BF
:10549000886408980068C06C069901F01002FF212A
:1054A000914088430799C96A91400843089909685F
:1054B000C864FFE70798C06901281ED1FFE7089874
:1054C0000068806B0490069800F010011F2000FA1D
:1054D00001F10498884304900798006A03900398A8
:1054E000069901F0100100FA01F1049808430490B4
:1054F0000498089909688863FFE708980068C06BFA
:105500000490069800F01001072000FA01F10498B9
:105510008843049007988069012803D1FFE70020A1
:10552000009013E007988069022803D1FFE701206B
:1055300000900AE00798406918B9FFE70120009041
:1055400002E000200090FFE7FFE7FFE70799886887
:1055500049690843009908430390069800F0100138
:105560004FF4807000FA01F1049888430490079882
:105570000279039840F48071012A08BF084603901D
:10558000069800F010014FF4007000FA01F1049841
:105590008843049007984279039840F40071012AE7
:1055A00008BF08460390049820F4404004900798F0
:1055B0000068022820D1FFE704F0D4FB0190019895
:1055C00046F60101C0F68911884205D3FFE7049829
:1055D00040F4004004900EE001984BF20141C0F20B
:1055E000C441884205D3FFE7049840F4804004900A
:1055F00000E0FFE7FFE705E007980168049808432B
:105600000490FFE70398069901F0100100FA01F1F8
:10561000049808430490049808990968C863069898
:1056200000F010014FF4804000FA01F20898016880
:10563000086890430860089800680068049006981D
:1056400000F0100140F6FE7000FA01F10498884362
:1056500004900798C06803900398069901F0100120
:1056600000FA01F104980843049004980899096825
:105670000860069800F01001C02000FA01F20898B6
:1056800001680868904308600798C068C0F3830009
:1056900003900798006900F03C01039840EA8110EC
:1056A000039008980068006E069901F0100240F619
:1056B0000F71914088430399914008430899096804
:1056C0000866089901200871FFE7089900204871D1
:1056D000FFE79DF817008DF82700FFE79DF82700EA
:1056E0000AB080BD80B582B00090009820B9FFE775
:1056F00001208DF8070016E00098007938B9FFE71F
:10570000009900204871009800F012F8FFE7009916
:1057100002200871009900200861009A012111718E
:105720008DF80700FFE79DF8070002B080BD00007C
:1057300082B001900198006841F20001C5F20001B9
:10574000884210D1FFE7FFE741F24C00C4F20200AB
:10575000016841F480210160006800F4802000901D
:105760000098FFE7FFE702B07047000083B00190A8
:105770000091019890F82500012836D1FFE7FFE756
:10578000019890F82400012804D1FFE702208DF849
:105790000B002EE00199012081F82400FFE7FFE7CC
:1057A0000198806C0068C0B2009AD3680021CFF6DF
:1057B000F87101EBC341D2F800C0536841EA0C61B3
:1057C0001943137A41EA0341527A41EA42210843DC
:1057D0000199896C0860FFE70199002081F8240095
:1057E000FFE700208DF80B0003E001208DF80B008F
:1057F000FFE79DF80B0003B07047000080B582B052
:1058000001900198C06C00680199096D084218D098
:10581000FFE70198816C086820F4807008600198A7
:10582000C16C006D48600199C86B40F40070C8639A
:105830000198406B20B1FFE70198416B8847FFE773
:10584000FFE70198406D08B3FFE70198806D00689D
:105850000199C96D084218D0FFE70198416D0868A9
:1058600020F4807008600198816DC06D48600199D6
:10587000C86B40F48060C8630198406B20B1FFE7BB
:105880000198416B8847FFE7FFE7FFE702B080BD63
:1058900082B0019000208DF80300019890F8250057
:1058A000022807D0FFE701990420C86301208DF882
:1058B00003002DE001980168086820F00E000860E0
:1058C0000198816C086820F4807008600198016874
:1058D000086820F0010008600198016C406C00F03D
:1058E0001F020120904048600198C16C006D486023
:1058F0000198406D58B1FFE70198416D086820F4A8
:10590000807008600198816DC06D4860FFE7FFE717
:105910000199012081F82500FFE70199002081F815
:105920002400FFE79DF8030002B0704780B582B005
:10593000019000208DF80300019890F825000228BE
:1059400011D0FFE701990420C8630199012081F873
:105950002500FFE70199002081F82400FFE70120DE
:105960008DF803003FE001980168086820F00E0000
:10597000086001980168086820F00100086001983B
:10598000816C086820F4807008600198016C406C9C
:1059900000F01F020120904048600198C16C006D2A
:1059A00048600198406D58B1FFE70198416D086863
:1059B00020F4807008600198816DC06D4860FFE739
:1059C0000199012081F82500FFE70199002081F865
:1059D0002400FFE70198806B20B1FFE70198816BFD
:1059E0008847FFE7FFE79DF8030002B080BD000095
:1059F00080B584B003900398006C0068029003980F
:105A000000680068019002980399496C01F01F0139
:105A1000C8404007002825D5FFE79DF8040040074F
:105A200000281FD5FFE7039800680068800600285B
:105A300007D4FFE703980168086820F004000860B5
:105A4000FFE70398016C406C00F01F0204209040B7
:105A500048600398006B20B1FFE70398016B88470B
:105A6000FFE76EE002980399496C01F01F01C840FE
:105A7000800700282FD5FFE79DF804008007002845
:105A800029D5FFE7039800680068800600280BD43A
:105A9000FFE703980168086820F00A00086003998E
:105AA000012081F82500FFE70398016C406C00F0AD
:105AB0001F02022090404860FFE70399002081F810
:105AC0002400FFE70398C06A20B1FFE70398C16A8A
:105AD0008847FFE734E002980399496C01F01F0101
