:020000040800F2
:1000000080FA0020ED010008390D01086DC70008D5
:10001000E90A010801100008BD8E01080000000077
:10002000000000000000000000000000512901084D
:10003000992B000800000000D11501083132010899
:10004000070200080702000807020008070200086C
:10005000070200080702000807020008070200085C
:100060000702000807020008070200080527000829
:100070001527000825270008352700084527000810
:10008000070200080702000807020008070200082C
:100090006D8D0108F12C0008012D000807020008F1
:1000A000070200080702000807020008070200080C
:1000B00007020008070200080702000807020008FC
:1000C00007020008070200080702000807020008EC
:1000D00007020008055701081557010825570108B0
:1000E00007020008070200080702000807020008CC
:1000F00007020008070200080702000807020008BC
:1001000007020008070200080702000807020008AB
:100110005D4101086D41010807020008070200085F
:10012000070200080702000807020008070200088B
:10013000070200080702000807020008070200087B
:10014000070200080702000807020008070200086B
:10015000070200080702000807020008070200085B
:10016000070200080702000807020008070200084B
:10017000070200080702000801330108070200080F
:10018000070200080702000807020008070200082B
:100190000702000800000000112D0008212D0008B2
:1001A000312D0008412D0008070200080702000851
:1001B0000702000807020008552700080702000888
:1001C00007020008070200080702000807020008EB
:1001D0000702000807020008DFF80CD000F004FC5A
:1001E000004800477DD0010880FA0020064880477B
:1001F00006480047FEE7FEE7FEE7FEE7FEE7FEE70C
:10020000FEE7FEE7FEE7FEE7ED320108D901000850
:100210002DE9F05F0546002092469B46884606463B
:10022000814640241BE0284641464746224600F0CE
:10023000A3FA53465A46C01A914110D311461846A4
:10024000224600F08AFA2D1A67EB01084F46224633
:100250000120002100F081FA17EB00094E41201E19
:10026000A4F10104DFDC484631462A464346BDE896
:10027000F09F40EA01039B0703D009E008C9121F61
:1002800008C0042AFAD203E011F8013B00F8013B50
:10029000521EF9D27047D2B201E000F8012B491E7C
:1002A000FBD270470022F6E710B513460A46044613
:1002B0001946FFF7F0FF204610BD421C10F8011B45
:1002C0000029FBD1801A7047034611F8012B00F872
:1002D000012B002AF9D1184670472DE9FE4F8046C0
:1002E00081EA0300C00F0C46009021F0004123F08A
:1002F0000045B8EB0200A94105D240462146904690
:100300001C460B46024623F00040104347D0270D01
:10031000C7F30A00C3F30A510290401A0190402823
:100320006BDAC3F3130040F4801B0098924620B1AF
:100330000023D2EB030A63EB0B0B01985946C0F183
:100340004002504600F009FA06460D46504659460E
:10035000019A00F021FA10EB08006141002487EABD
:10036000115284EAE7731A4340D0009A62B3019AAB
:10037000012A4FEA075215DC001B61EB02014FF026
:10038000004202EA0752CDE90042001C41F580110B
:1003900032462B4600F058FA03B0BDE8F08F4046D5
:1003A0002146F9E7001B61EB0201001C41F58013B7
:1003B00000185B412018A2F5001747EB030140EA43
:1003C000D570B6196D4111E06D084FEA360645EA61
:1003D000C0754FEA0752001B61EB0201001C41F59A
:1003E000801149084FEA30000019514132462B462E
:1003F00003B0BDE8F04F00F018BA009801224000A9
:100400000023D0EB020263EBE073009821464FEA31
:10041000E074B8EB000061EB0401E9E783F000430E
:100420005BE781F0004158E72DE9FE4F81EA0304C4
:1004300004F0004421F0004100944FF0000B23F041
:10044000004350EA01045ED052EA03045BD0C3F3D8
:100450000A54C1F30A552C44A4F2F3340194A0FBCE
:100460000254C1F3130141F48011C3F3130343F4A5
:10047000801301FB024400FB034E840A970A44EAFE
:10048000815447EA8357A4FB076802958D0A05FB50
:1004900007854FEA932C04FB0C542705029D4FEA75
:1004A000065847EA1637B5EB08056EEB070C870EC2
:1004B000920E47EA811742EA8312A7FB0201B6EBCC
:1004C0000B0164EB00042B0D43EA0C335E1844EB84
:1004D0001C50DA465146E7FB0201C5F313044FEA0C
:1004E0000B3343EA14534FEA0432019C43EA0603F8
:1004F000A4F10C040294009CCDE900B400F0A4F92E
:1005000003B0BDE8F08F00200146F9E72DE9F04D7A
:1005100081EA030404F0004B21F0004514464FF03B
:10052000000A23F0004150EA050220D054EA0102FB
:100530001DD0C5F30A570246C5F31303C1F31300D8
:10054000C1F30A5640F4801543F48013A7EB060864
:10055000101BD64608F2FD3873EB050002D308F1F4
:10056000010801E092185B41B8F1000F03DA0020A6
:100570000146BDE8F08D00204FF480110646844608
:100580000EE0171B73EB050705D3121B63EB050386
:1005900006434CEA010C49084FEA300092185B41CF
:1005A00050EA0107EDD152EA030012D082EA0400BA
:1005B00083EA0501084305D0101BAB4106D2012296
:1005C000002306E000224FF0004302E06FF001023A
:1005D00053101AEB06004CEB085110EB0A0041EBEC
:1005E0000B01BDE8F04D00F020B930B5041E71F1EB
:1005F000000404DB4FF00044404264EB0101141E90
:1006000073F1000405DB1C464FF00043524263EBDC
:100610000403801A994101D3012030BD002030BD70
:1006200030B5041E71F1000404DB4FF00044404279
:1006300064EB0101141E73F1000405DB1C464FF04E
:100640000043524263EB0403101A8B4101D3012093
:1006500030BD002030BD0EB5C10F80EAE070084407
:10066000CA07002140F233438DE80E000A460B46CC
:1006700000F0EAF803B000BD0EB540F2334102913C
:100680000021CDE900110A460B4600F0DDF803B069
:1006900000BD70B5C1F30A5201F000450024C1F35A
:1006A000130140F2FF3341F480119A4201DA002035
:1006B00070BD40F233439A42A2F2334203DC52420D
:1006C00000F05AF800E090402C43F1D0404270BD59
:1006D00000F0004230F000400AD0C10D01F5607119
:1006E000C0F3160042EA0151C208400711437047A7
:1006F00000200146704701F0004330B421F0004172
:1007000050EA010206D00A0DA2F56072C1F313018E
:10071000002A02DC30BC00207047440F44EAC104C8
:10072000C100E01830BC00EBC25000F047B830B553
:100730000B46014600202022012409E021FA02F59F
:100740009D4205D303FA02F5491B04FA02F5284439
:10075000151EA2F10102F1DC30BD202A04DB203A93
:1007600000FA02F1002070479140C2F1200320FA04
:1007700003F3194390407047202A04DB203A21FA02
:1007800002F00021704721FA02F3D040C2F12002AA
:100790009140084319467047202A06DBCB17203AC0
:1007A00041FA02F043EAE07306E041FA02F3D04076
:1007B000C2F1200291400843194670470029A8BFA2
:1007C0007047401C490008BF20F00100704710B47A
:1007D000B0FA80FC00FA0CF050EA010404BF10BC2F
:1007E000704749B1CCF1200421FA04F411FA0CF15C
:1007F00018BF012121430843A3EB0C01CB1D4FEA95
:1008000000614FEA102042BF002010BC704700EB8F
:10081000C35010440029A4BF10BC7047401C4900BD
:1008200008BF20F0010010BC704710B5141E73F112
:10083000000408DA401C41F1000192185B411A43A0
:1008400001D120F0010010BD2DE9F04D92469B46EC
:1008500011B1B1FA81F202E0B0FA80F22032904692
:10086000FFF77BFF04460F4640EA0A0041EA0B010E
:1008700053465A46084313D0114653EA010019D093
:10088000C8F140025046FFF777FF05460E46504636
:1008900059464246FFF761FF084305D0012004E0B6
:1008A00020463946BDE8F08D0020054346EAE07653
:1008B0002C4337430A986305E40AA0EB08000022A2
:1008C000FD0A44EA47540A3002D500200146E9E710
:1008D000010510196941DDE9084500196941BDE8C4
:1008E000F04DA2E72DE9F04D00231A461B1A8A416C
:1008F00003DB00200146BDE8F08DC1F30A52C1F3CD
:10090000130141F480154FF0000BD10702D10018FC
:100910006D41521E0027044640F2FF11384601EB9C
:10092000620A3E468046024600204FF48011FFF7DF
:1009300023FFC2197141BB1846EB0100B4EB030C55
:1009400075EB000C04D3E41A65EB000517460E4660
:10095000241908F101006D4180463428E3DDF919BE
:1009600046EB0600091BA84103D24FF0FF321346A5
:1009700001E0002213461BEB070046EB0A51BDE8DD
:10098000F04DFFF752BFC1F30A52C1F3130140F219
:10099000FF3341F480119A4202DA00200146704789
:1009A00040F233439A42A2F2334202DC5242FFF752
:1009B000E3BEFFF7D2BE000030B5041E71F10004A3
:1009C00004DB4FF00044404264EB0101141E73F15C
:1009D000000405DB1C464FF00043524263EB040366
:1009E000994208BF904230BD1CB5094800900948A3
:1009F00001900546009C06E0E06840F0010394E8A1
:100A0000070098471034AC42F6D3FFF7E9FB00002B
:100A1000C80E0208E80E020870B58C1810F8015BC9
:100A200015F0070301D110F8013B2A1106D110F887
:100A3000012B03E010F8016B01F8016B5B1EF9D18B
:100A40002B0705D40023521E0DD401F8013BFAE711
:100A500010F8013BCB1A921C03E013F8015B01F87C
:100A6000015B521EF9D5A142D8D3002070BD000011
:100A700080B541F20000C4F600000821012205F013
:100A8000C1FD80BD80B541F20000C4F60000082120
:100A9000002205F0B7FD80BD80B541F20000C4F62C
:100AA00000001021012205F0ADFD80BD80B541F2AE
:100AB0000000C4F600001021002205F0A3FD80BD57
:100AC00080B584B00390FFF7DDFF922000F0CEF9EF
:100AD00040F24631C2F2000102911220062200F0DB
:100AE00091F9FFF7C5FF029B1878597840EA012079
:100AF00040F24431C2F200010880B1F9000000EE7A
:100B0000100AB8EEC00A40F20800C2F2000090EDF0
:100B1000001A20EE010A039A92ED081A20EE010A4B
:100B200082ED000A9A7893F803C042EA0C220A8008
:100B3000B1F9002000EE102AB8EEC00A90ED001ABC
:100B400020EE010A039A92ED081A20EE010A82EDC6
:100B5000010A1A795B7942EA03220A80B1F900108E
:100B600000EE101AB8EEC00A90ED001A20EE010A4D
:100B7000039890ED081A20EE010A80ED020AFFF7B3
:100B800095FF02990020082200F03CF9FFF784FF4E
:100B9000029800780F2840F09E80FFE740F2262060
:100BA000C2F200000078002850D0FFE740F2463340
:100BB000C2F200039878D97840EA012040F244312B
:100BC000C2F200010880B1F9000000EE100AB8EE90
:100BD000C00A40F20C00C2F2000090ED002A039A15
:100BE00092ED091A20EE020A30EE410A82ED030A64
:100BF0001A7993F805C042EA0C220A80B1F9002064
:100C000000EE102AB8EEC00A90ED002A039A92ED89
:100C10000A1A20EE020A30EE410A82ED040A9A799D
:100C2000DB7942EA03220A80B1F9001000EE101AC3
:100C3000B8EEC00A90ED002A039890ED0B1A20EE52
:100C4000020A30EE410A80ED050A43E040F24633E5
:100C5000C2F200039878D97840EA012040F244318A
:100C6000C2F200010880B1F9000000EE100AB8EEEF
:100C7000C00A40F20C00C2F2000090ED001A20EE13
:100C8000010A039A82ED030A1A7993F805C042EA31
:100C90000C220A80B1F9002000EE102AB8EEC00A3A
:100CA00090ED001A20EE010A039A82ED040A9A7967
:100CB000DB7942EA03220A80B1F9001000EE101A33
:100CC000B8EEC00A90ED001A20EE010A039880EDFC
:100CD000050AFFE7FFE7FFF7D5FEA22000F0C6F800
:100CE00040F24631C2F2000101912220022200F0BE
:100CF00089F8FFF7BDFE019908784978C00040EAFD
:100D0000511140F24430C2F200000180B0F90000FD
:100D1000B0F5806F09DBFFE740F24431C2F2000119
:100D20000888A0F500600880FFE740F24430C2F276
:100D30000000B0F9000000EE100AB8EEC00AB4EEF0
:100D4000001A20EE010AB3EE071A30EE010A0398EA
:100D500080ED070A04B080BD80B584B003908DF8A3
:100D60000B10039840F21001C2F20001086042F239
:100D7000F441C2F200010191002008701BF04AFF0B
:100D8000019902460878104308701CF021F8019977
:100D900002460878104308709DF80B0038B1FFE751
:100DA00040F21030C2F2000000F0DEFC20E040F221
:100DB0001031C2F2000143F6AC00C3F622304862A3
:100DC00041F2B060C3F6CE108862C86241F23F6063
:100DD000C4F21B10086391ED0C1A9FED090A80EE16
:100DE000010A81ED080A0020C4F220208861FFE793
:100DF00042F2F440C2F20000007804B080BD00BFAF
:100E0000C3F51C4180B584B08DF80F0002918DF8B8
:100E100007209DF80F0040F0800000F027F8FFE762
:100E20009DF8070070B1FFE7552000F01FF8029908
:100E300008700298013002909DF8070001388DF883
:100E40000700EDE704B080BD80B582B08DF80700E3
:100E500000919DF8070040F0800000F007F8552051
:100E600000F004F80099087002B080BD80B582B02F
:100E70008DF8070040F21000C2F2000000686A46D8
:100E80004FF47A7111600DF107010DF10602012393
:100E900008F00CFD9DF8060002B080BD80B582B060
:100EA0008DF807008DF806109DF80700FFF7DEFFAC
:100EB0009DF80600FFF7DAFF02B080BD83B0029014
:100EC00001910092009890ED004A90ED010A90ED9A
:100ED000026A90ED035A26EE062AB6EE001A31EEAB
:100EE000422A25EE053A32EE432A029824EE057A8C
:100EF00020EE063A33EE477AD0ED000AD0ED011A23
:100F000090ED023A27EE217A22EE202A32EE072ACD
:100F100024EE064A20EE050A30EE040A20EE030A0B
:100F200030EE020A30EE000A019880ED000A0098C7
:100F300090ED004A90ED016A90ED022A90ED035A7F
:100F400024EE053A26EE020A30EE030A029826EE57
:100F5000063A31EE433A25EE057A33EE477AD0ED84
:100F6000000AD0ED011A90ED023A27EE217A20EE28
:100F7000200A30EE070A24EE064A22EE052A32EE57
:100F8000442A22EE032A30EE020A30EE000A0198CB
:100F900080ED010A009890ED002A90ED014A90ED55
:100FA000023A90ED030A22EE036A24EE005A35EE6F
:100FB000465A029822EE042A23EE000A30EE020A74
:100FC00090ED006A90ED017A90ED022A20EE070A7A
:100FD00025EE065A30EE050A24EE044A31EE441A94
:100FE00023EE033A31EE431A21EE021A30EE010AE3
:100FF00030EE000A019880ED020A03B0704700004D
:10100000FFE7FEE780B582B043F2EC00C2F20000D9
:10101000019009F0B7F80198002109F021FE02B013
:1010200080BD000081B08DF803009DF8030040F200
:101030005431C2F20001087001B0704783B08DF8DE
:101040000B009DF80B0001460091152800F2C281AB
:101050000099DFE811F016001C002F004300570034
:101060006B007F009300A700BB00CF00E300F700F8
:101070000B011F01330147015B016F0183019701E0
:10108000AB013220ADF8080064200190A2E13220CB
:10109000ADF80800BDF808104FF68060C0F62120BA
:1010A000B0FBF1F042F22D31C0F2FA01A0FB0110C9
:1010B00001908FE13220ADF80800BDF808104FF61E
:1010C0008060C0F62120B0FBF1F049F2C551C0F6B6
:1010D000EE51A0FB0110000901907BE13220ADF838
:1010E0000800BDF808104FF68060C0F62120B0FB64
:1010F000F1F048F2C701C0F66941A0FB01100009F8
:10110000019067E13220ADF80800BDF808104FF6F5
:101110008060C0F62120B0FBF1F048F20941C0F632
:10112000BC31A0FB01100009019053E13220ADF861
:101130000800BDF808104FF68060C0F62120B0FB13
:10114000F1F04BF61541C0F29C21A0FB0110800884
:1011500001903FE13220ADF80800BDF808104FF6CD
:101160008060C0F62120B0FBF1F042F29501C0F69C
:101170004F11A0FB0110000901902BE13220ADF8C6
:101180000800BDF808104FF68060C0F62120B0FBC3
:10119000F1F049F69D71C0F64A01A0FB011000096B
:1011A000019017E13220ADF80800BDF808104FF6A5
:1011B0008060C0F62120B0FBF1F04EF6E941C0F2AC
:1011C000D471A0FB01100009019003E13220ADF8B9
:1011D0000800BDF808104FF68060C0F62120B0FB73
:1011E000F1F04AF63711C0F6F451A0FB01104009A6
:1011F0000190EFE03220ADF80800BDF808104FF67E
:101200008060C0F62120B0FBF1F042F69111C0F2EF
:101210003761A0FB011000090190DBE03220ADF83E
:101220000800BDF808104FF68060C0F62120B0FB22
:10123000F1F048F20941C0F6BC31A0FB01104009B1
:101240000190C7E03220ADF80800BDF808104FF655
:101250008060C0F62120B0FBF1F04BF61541C0F2E2
:101260009C21A0FB0110C0080190B3E03220ADF832
:101270000800BDF808104FF68060C0F62120B0FBD2
:10128000F1F042F29501C0F64F11A0FB01104009A8
:1012900001909FE03220ADF80800BDF808104FF62D
:1012A0008060C0F62120B0FBF1F049F69D71C0F6D8
:1012B0004A01A0FB0110400901908BE03220ADF8FB
:1012C0000800BDF808104FF68060C0F62120B0FB82
:1012D000F1F04EF6E941C0F2D471A0FB01104009D3
:1012E000019077E03220ADF80800BDF808104FF605
:1012F0008060C0F62120B0FBF1F049F6D561C0F660
:10130000F151A0FB01108009019063E03220ADF89B
:101310000800BDF808104FF68060C0F62120B0FB31
:10132000F1F042F69111C0F23761A0FB01104009C3
:1013300001904FE03220ADF80800BDF808104FF6DC
:101340008060C0F62120B0FBF1F04BF6EB21C1F23A
:101350007471A0FB0110C00901903BE03220ADF890
:101360000800BDF808104FF68060C0F62120B0FBE1
:10137000F1F04BF61541C0F29C21A0FB01100009D1
:10138000019027E03220ADF80800BDF808104FF6B4
:101390008060C0F62120B0FBF1F042F29501C0F66A
:1013A0004F11A0FB01108009019013E03220ADF82D
:1013B0000800BDF808104FF68060C0F62120B0FB91
:1013C000F1F049F69D71C0F64A01A0FB01108009B9
:1013D0000190FFE7BDF80800013843F2EC01C2F2CA
:1013E000000109688862FFE70198013843F2EC01C7
:1013F000C2F200010A68D06201980138C860FFE7B4
:101400000198400843F2EC01C2F200010968486308
:1014100003B0704780B543F2EC00C2F20000002137
:1014200009F01EFC80BD000080B543F2EC00C2F262
:101430000000002109F060FD80BD000080B58CB087
:101440000B90FFF7DFFDFFE740F25430C2F20000DF
:10145000007801460A91032800F2B5800A99DFE876
:1014600001F0020F7A9600200990FFF7E7FD099836
:1014700040F25431C2F200010870FFF7D5FFA2E03C
:10148000FFF7C8FF0820FFF7D9FDC82004901BF024
:101490005BFE00200890FFF7D1FD322005901BF085
:1014A00053FE09200390FFF7C9FD04981BF04CFE82
:1014B0000898FFF7C3FD05981BF046FE0A20FFF7CA
:1014C000BDFD04981BF040FE0898FFF7B7FD059896
:1014D0001BF03AFE0398FFF7B1FD04981BF034FEB1
:1014E0000898FFF7ABFD05981BF02EFE0C20069028
:1014F000FFF7A4FD04981BF027FE0898FFF79EFD58
:1015000005981BF021FE0E20FFF798FD04981BF0B4
:101510001BFE0898FFF792FD05981BF015FE0D20A5
:101520000790FFF78BFD4FF4FA701BF00DFE069845
:10153000FFF784FDFA201BF007FE0798FFF77EFDFA
:1015400040F2EE201BF000FE089840F25431C2F247
:101550000001087037E0FFF75DFF0820FFF76EFD20
:10156000C82002901BF0F0FD0A20FFF767FD0298EB
:101570001BF0EAFD0C20FFF761FD02981BF0E4FD73
:1015800040F25431C2F20001002008701BE0FFF766
:1015900041FF0C20FFF752FDC82001901BF0D4FD45
:1015A0000A20FFF74BFD01981BF0CEFD0820FFF746
:1015B00045FD01981BF0C8FD40F25431C2F2000114
:1015C00000200870FFE70A201BF0BEFD3CE700008A
:1015D00080B58AB009900020029003900490059095
:1015E000012101910691079040F2FF70089009983F
:1015F00003A903F0F3FE029B099869460B600222DF
:10160000114603F047FF0199029A099803F092FDF1
:101610000AB080BD80B584B042F65C20C2F2000002
:10162000019004F0DFFD42F6C020C2F200000290FB
:1016300004F0D8FD42F62430C2F20000039004F01A
:10164000D1FD0198FFF7C4FF0298FFF7C1FF03988F
:10165000FFF7BEFF04B080BD80B58CB00B90ADF835
:101660002A100992BDF82A000090002001900290F3
:1016700008210391049005900690079008900B981C
:10168000099A694603F05CFE0CB080BD84B08DF809
:101690000F000291ADF806209DF80F000146009161
:1016A00023281DD80099DFE801F012131415161B2A
:1016B0001B1B1B1B1B1B1B1B1B1B1B1B1B1B1B1B7A
:1016C0001B1B1B1B1B1B1B1B1B1B1718191A08E0C2
:1016D00007E006E005E004E003E002E001E000E0EE
:1016E000FFE7002004B070470020704780B582B04B
:1016F00042F20850C2F20000009041F6D041C2F21E
:1017000000010022019214F045FB009841F2D04103
:10171000C2F2000114F024FB019802B080BD000069
:1017200080B584B003900291039942F20850C2F24E
:101730000000019014F014FB019814F0BBFA039818
:101740000299096817F066FB002004B080BD000014
:1017500083B0029001918DF8032000208DF80200E3
:101760009DF9020003B0704780B592B005A90291BF
:101770001190002010900F9001F020F940F280307D
:10178000C2F2000080ED000AFFE701F017F940F215
:101790008030C2F2000090ED001A30EE410AB2EE45
:1017A000041AB4EE410AF1EE10FA1ADDFFE71199BE
:1017B00043F6AC00C3F622304862119941F2B060A2
:1017C000C3F6CE1088621199C862119941F23F6048
:1017D000C4F21B10086311990020C4F22020886114
:1017E000F6E29FEDE40A01F097F8119900200863F2
:1017F00011994862119988621199C862ADF8120076
:10180000FFE7BDF8120040F23401C2F2000109887E
:10181000884280F2E781FFE7FFF734F99220FFF773
:1018200025FB12200FA901910622FFF7EBFAFFF723
:101830001FF99DF83C009DF83D1040EA0120ADF8ED
:101840003A00BDF93A0000EE100AB8EEC00A40F2C4
:101850000800C2F2000090ED001A20EE010A119972
:1018600081ED000A9DF83E109DF83F2041EA0221DB
:10187000ADF83A10BDF93A1000EE101AB8EEC00AF1
:1018800090ED001A20EE010A119981ED010A9DF8F0
:1018900040109DF8412041EA0221ADF83A10BDF90F
:1018A0003A1000EE101AB8EEC00A90ED001A20EEC1
:1018B000010A119880ED020A119890ED001A90ED3E
:1018C000012A90ED020A22EE022A21EE011A31EEDF
:1018D000021A20EE000A30EE010A1DF0BAFA029850
:1018E00080ED020A90ED021A119890ED0C0A30EE8C
:1018F000010A80ED0C0AFFF7D9F8019900200822AF
:10190000FFF780FAFFF7C8F89DF83C000F285FD179
:10191000FFE79DF83E009DF83F1040EA0120ADF83A
:101920003A00BDF93A0000EE100AB8EEC00A40F2E3
:101930000C00C2F2000090ED001A20EE010A11998D
:1019400081ED030A119991ED031A91ED090A30EE28
:10195000010A81ED090A9DF840109DF8412041EAF5
:101960000221ADF83A10BDF93A1000EE101AB8EEA7
:10197000C00A90ED001A20EE010A119981ED040AC7
:10198000119991ED041A91ED0A0A30EE010A81EDE8
:101990000A0A9DF842109DF8432041EA0221ADF861
:1019A0003A10BDF93A1000EE101AB8EEC00A90EDE8
:1019B000001A20EE010A119880ED050A119890EDA9
:1019C000051A90ED0B0A30EE010A80ED0B0AFFE7D5
:1019D000BDF8120038BBFFE70798069007980590FE
:1019E00000208DF81100FFE79DF81100022819DC96
:1019F000FFE711989DF8112000EB8200C0680BA949
:101A000041F8220011989DF8112000EB8200C06877
:101A100008A941F82200FFE79DF8110001308DF878
:101A20001100E1E764E0029890ED020A90ED011ADE
:101A3000B4EE410AF1EE10FA03DDFFE707980690D5
:101A4000FFE7029890ED020A90ED001AB4EE410A09
:101A5000F1EE10FA03DAFFE707980590FFE70020A0
:101A60008DF81000FFE79DF8100002283FDCFFE72B
:101A700011989DF8101000EB810090ED030A0BA85F
:101A800000EB810090ED001AB4EE410AF1EE10FA7D
:101A90000ADDFFE711989DF8102000EB8200C06876
:101AA0000BA941F82200FFE711989DF8101000EBF8
:101AB000810090ED030A08A800EB810090ED001A68
:101AC000B4EE410AF1EE10FA0ADAFFE711989DF838
:101AD000102000EB8200C06808A941F82200FFE74F
:101AE000FFE79DF8100001308DF81000BBE7FFE71D
:101AF000029890ED010A90ED001A30EE410A42F290
:101B0000F840C2F2000080ED000A00208DF80F00BE
:101B1000FFE79DF80F0002281DDCFFE79DF80F107E
:101B20000BA800EB810090ED000A08A800EB8100F3
:101B300090ED001A30EE410A42F2FC40C2F2000081
:101B400000EB810080ED000AFFE79DF80F000130F7
:101B50008DF80F00DDE742F2F840C2F2000090ED90
:101B6000000AB6EE001AB4EE410AF1EE10FA2DDCCE
:101B700002E000BF0AD7A33B42F2FC40C2F20000E1
:101B800090ED000A9FED981AB4EE410AF1EE10FABA
:101B90001CDCFFE742F2FC40C2F2000090ED010ABB
:101BA0009FED911AB4EE410AF1EE10FA0EDCFFE758
:101BB00042F2FC40C2F2000090ED020A9FED8A1A48
:101BC000B4EE410AF1EE10FA01DDFFE70AE09FED05
:101BD000870A00F0A1FEFFE7BDF812000130ADF862
:101BE00012000EE640F23400C2F20000008800EE5F
:101BF000100AB8EE401A119890ED0C0A80EE010A16
:101C000080ED0C0A00208DF80E00FFE79DF80E0015
:101C100002281BDCFFE740F23400C2F2000000881B
:101C200000EE100AB8EE401A11989DF80E1000EB65
:101C3000810090ED090A80EE010A80ED090AFFE7B4
:101C40009DF80E0001308DF80E00DFE7FEF71AFF59
:101C5000A220FFF70BF922200FA90222FFF7D2F8EA
:101C6000FEF706FF9DF83C009DF83D10C00040EADD
:101C70005110ADF83A00BDF93A00B0F5806F07DBBE
:101C8000FFE7BDF83A00A0F50060ADF83A00FFE7C5
:101C9000BDF93A0000EE100AB8EEC00AB4EE001A20
:101CA00020EE010AB3EE071A30EE010A119880ED1A
:101CB000060A42F2E841C2F20001088801300880B9
:101CC000FFE742F2F840C2F2000090ED000A012066
:101CD000B6EE001AB4EE410AF1EE10FA009071DC93
:101CE000FFE7119890ED0C0A9FED411A30EE010AC2
:101CF000B0EEC00A0120B6EE001AB4EE410AF1EED1
:101D000010FA00905EDCFFE742F2FC40C2F20000F5
:101D100090ED000A01209FED341AB4EE410AF1EE75
:101D200010FA00904EDCFFE742F2FC40C2F20000E5
:101D300090ED010A01209FED2C1AB4EE410AF1EE5C
:101D400010FA00903EDCFFE742F2FC40C2F20000D5
:101D500090ED020A01209FED241AB4EE410AF1EE43
:101D600010FA00902EDCFFE7119890ED090AB0EE12
:101D7000C00A01209FED1F1AB4EE410AF1EE10FADD
:101D800000901FDCFFE7119890ED0A0AB0EEC00A40
:101D900001209FED181AB4EE410AF1EE10FA0090FE
:101DA00010DCFFE7119890ED0B0AB0EEC00A9FED32
:101DB000111A0020B4EE410AF1EE10FAC8BF01205A
:101DC0000090FFE70098C00700287FF4DEACFFE733
:101DD000119890ED0C1A9FED080A80EE010A80ED33
:101DE000080A12B080BD00BF9A99193E6F12033ADB
:101DF000CDCC1CC10AD7233CC3F51C4182B08DED6C
:101E0000010A00909DED010A009890ED001AB4EED1
:101E1000410AF1EE10FA13DDFFE7009890ED000A99
:101E2000B5EE400AF1EE10FA0ADBFFE7009890EDFC
:101E3000000A9FED361A30EE010A80ED000A5CE0E0
:101E40009DED010A009890ED001AB4EE410AF1EE02
:101E500010FA13DAFFE7009890ED000AB5EE400A99
:101E6000F1EE10FA0ADCFFE7009890ED000A9FED12
:101E7000261A30EE010A80ED000A3DE09DED010AD0
:101E8000009890ED001AB4EE410AF1EE10FA13DA60
:101E9000FFE7009890ED000AB5EE400AF1EE10FA67
:101EA0000ADDFFE7009890ED000A9FED161A30EE6C
:101EB000010A80ED000A1EE09DED010A009890EDF8
:101EC000001AB4EE410AF1EE10FA13DDFFE70098B4
:101ED00090ED000AB5EE400AF1EE10FA0ADAFFE7DB
:101EE000009890ED000A9FED061A30EE010A80ED91
:101EF000000AFFE7FFE7FFE7FFE702B0704700BF18
:101F00000AD7233C0AD723BC6F1203BC6F12033CD1
:101F100080B5BCB03B9040F28830C2F200003590F2
:101F200088309FED710A8DED330A9FED702A8DED9B
:101F3000362ADFED6F2ACDED342AF0EE420AB0EEFC
:101F4000421AF0EE421A0FF057FA9DED330ADDED1A
:101F5000342A35989DED362AD030F0EE420AB0EEA4
:101F6000421AF0EE421A0FF047FA9DED330ADDED0A
:101F7000342A35989DED362A00F58C70F0EE420A31
:101F8000B0EE421AF0EE421A0FF036FA9DED330A27
:101F9000DDED342A35989DED362A00F5B070F0EE6F
:101FA000420AB0EE421AF0EE421A0FF025FA3598C6
:101FB0009DED362A4030B2EE040ADFED4E2AF0EEF7
:101FC000420AB0EE421AF0EE421A0FF015FAFFE79D
:101FD00040F69C41C2F20001329191ED0B0A9FED57
:101FE000461A20EE010A9FED451A80EE010A40F2E2
:101FF0008830C2F20000319080ED0B0A91ED010AA9
:102000000830FFF7FBFE3198329991ED020A0C304F
:10201000FFF7F4FE329890F83300052870D1FFE7FF
:1020200040F28830C2F200002F90002130914161CF
:1020300090ED030A30EE000A10EE100AFEF748FB9E
:1020400002462F9823920A46239942EC101B8DEDED
:102050002A0BC06AFEF73CFB41EC100B1CF0F4FDB0
:102060002F998DED280B8868C96A2491FEF730FB03
:102070000246249825920A46259942EC101B8DEDC4
:10208000260BFEF725FB41EC100B1CF041FE9DEDED
:10209000261B51EC110B53EC102BFEF7C5F99DEDEF
:1020A000281B9DED2A0B41EC120B8DED2C2B53ECD4
:1020B000112B51EC100BFEF7B7F99DED2C0B41ECF9
:1020C000110B51EC110B53EC102BFEF706F941EC00
:1020D000100B51EC100BFEF70EFB2F9902463098B7
:1020E0008A610861BEE000BF00803B45000000003F
:1020F0000000804600004843DB0F494000003443A5
:1021000040F28831C2F2000122918868C96A0A91BE
:10211000FEF7DEFA02460A980B920A460B9942EC49
:10212000101B8DED100BFEF7D3FA41EC100B1CF0D9
:102130008BFD22998DED120BC868C96A0C91FEF7D0
:10214000C7FA02460C980D920A460D9942EC101BF4
:102150008DED0E0BFEF7BCFA41EC100B1CF0D8FD18
:102160009DED0E1B51EC110B53EC102BFEF75CF99F
:102170009DED101B9DED120B41EC120B8DED142B00
:1021800051EC110B53EC102BFEF74EF99DED140B97
:1021900041EC110B51EC110B53EC102BFEF79DF899
:1021A00041EC100B51EC100BFEF7A5FA2299486197
:1021B000C868C96A1691FEF78BFA024616981792FC
:1021C0000A46179942EC101B8DED1C0BFEF780FAA6
:1021D00041EC100B1CF038FD22998DED1E0B886828
:1021E000C96A1891FEF774FA0246189819920A46BD
:1021F000199942EC101B8DED1A0BFEF769FA41ECB0
:10220000100B1CF085FD9DED1A1B51EC110B53ECCE
:10221000102BFEF709F99DED1C1B9DED1E0B41ECEB
:10222000120B8DED202B51EC110B53EC102BFEF704
:10223000FBF89DED200B41EC110B51EC110B53EC15
:10224000102BFEF7EBF841EC100B51EC100BFEF7E6
:1022500052FA2299886140F69C40C2F20000C068A0
:102260000861FFE740F6C401C2F200010391B1F931
:102270000C00B1F920C0B1F93430B1F94820604404
:10228000C01A801A00EE100AB8EEC00A9FEDD91AE3
:1022900020EE010A8DED3A0AB1F90C00B1F920C027
:1022A000B1F93430B1F94820A0EB0C00C01A104449
:1022B00000EE100AB8EEC00A20EE010A8DED390AD0
:1022C000B1F90C00B1F92030B1F93420B1F948105E
:1022D00018441044084400EE100AB8EEC00A20EE7C
:1022E000010A9FEDC51A80EE010A8DED380A40F211
:1022F0008830C2F200000990283000F039FB0399C1
:1023000009988DED370A9DED3A0A9DED372A90ED3B
:10231000071A20EE020A30EE010A80ED070A9DED51
:10232000390A9DED372A90ED081A20EE020A30EEA8
:10233000010A80ED080A9DED380A9DED371A20EE5E
:10234000010A90ED091A9FEDAD2A20EE020A30EE47
:10235000010A80ED090A90ED051A90ED060A30EEAB
:10236000010A80ED0C0A90ED050A90ED061A30EE98
:10237000410A80ED0D0A90ED051A90ED060A30EE47
:10238000410A80ED0E0A90ED051A90ED060AB1EEB5
:10239000400A30EE410A80ED0F0A90ED0C0AB1F9C7
:1023A0000C10490001EE101AB8EEC11A9FED902AE8
:1023B0008DED042A21EE021A9FED912A8DED052A5A
:1023C00021EE021A9FED8F2A8DED062A81EE021A68
:1023D0009FED8D2A8DED072AC1EE020A88300FF09D
:1023E0002DF803999DED045A9DED054A9DED063AA1
:1023F0009DED072A099890ED0D0AB1F920104900CA
:1024000001EE101AB8EEC11A21EE051A21EE041AD7
:1024100081EE031AC1EE020AD0300FF00FF80399D3
:102420009DED045A9DED054A9DED063A9DED072A66
:10243000099890ED0E0AB1F93410490001EE101A16
:10244000B8EEC11A21EE051A21EE041A81EE031A24
:10245000C1EE020A00F58C700EF0F0FF03999DEDBD
:10246000045A9DED054A9DED063A9DED072A09980F
:1024700090ED0F0AB1F94810490001EE101AB8EEBC
:10248000C11A21EE051A21EE041A81EE031AC1EEDB
:10249000020A00F5B0700EF0D1FF099840F64851DD
:1024A000C2F200010891498900EE101AB8EE400A04
:1024B00080ED010A40F63851C2F20001098900EEB0
:1024C000101AF8EE400A40309FED500A0EF0B6FFA9
:1024D00008990998498900EE101AB8EEC00A90EDE3
:1024E0001F1A30EE410A80ED010A40F69C40C2F20C
:1024F000000090ED0E0AB2EE001AB4EE410AF1EEC1
:1025000010FA27DBFFE740F69C40C2F2000090ED96
:102510000E0AB2EE041AB4EE410AF1EE10FA19DC1A
:10252000FFE740F69C40C2F2000090ED0E0ABAEEC2
:10253000001A30EE010AB0EE001A80EE011A40F2E5
:102540008830C2F2000090ED010A20EE010A80ED11
:10255000010AFFE740F28830C2F2000090ED010A64
:1025600040F6C401C2F200010FF064F840F69C404E
:10257000C2F20000007848B3FFE740F28830C2F2B0
:10258000000090ED313A90ED432A90ED551A90ED10
:10259000670ABDEEC33A13EE102ABDEEC22A12EE50
:1025A000103ABDEEC11A11EE100ABDEEC00A10EECF
:1025B00010CA6946C1F804C0086042F65C20C2F245
:1025C00000004FF400710EF091FA0DE06846002310
:1025D0004360036042F65C20C2F200004FF40071D9
:1025E0001A460EF083FAFFE701201AF0ADFDEFE482
:1025F000DB0F4940E0879738E605E03EE02E654274
:102600008716593D0000704227A0994100002042E2
:1026100080B582B0019032201AF096FDFFE710F0ED
:102620009DFD0A201AF090FDF9E7000040F69C415C
:10263000C2F2000191ED010A91ED061A9FED293ACF
:1026400021EE031A9FED282A20EE020A30EE010A3D
:1026500081ED010A91ED020A91ED071A21EE031AAC
:1026600020EE020A30EE010A81ED020A91ED030A22
:1026700091ED081A9FED1D2A21EE021A9FED1C2AEA
:1026800020EE020A30EE010A81ED030A91ED040A00
:1026900091ED091A9FED172A21EE021A9FED162AD5
:1026A00020EE020A30EE010A81ED040A91ED050ADE
:1026B00091ED0A1A9FED112A21EE021A9FED102AC0
:1026C00020EE020A30EE010A81ED050A48688861B1
:1026D0008868C861C8680862086948624869886291
:1026E000704700BF6666663FCDCCCC3DCCCC4C3E3F
:1026F000CDCC4C3FCCCCCC3E9A99193F9A99993E7F
:102700003333333F80B542F67C00C2F2000002F062
:1027100019FB80BD80B542F6DC00C2F2000002F079
:1027200011FB80BD80B542F63C10C2F2000002F001
:1027300009FB80BD80B542F69C10C2F2000002F099
:1027400001FB80BD80B542F6FC10C2F2000002F031
:10275000F9FA80BD80B542F6DC00C2F2000002F05A
:10276000F7F980BD84B003900398006840F20741F8
:10277000C4F20201884206D8FFE740F60000C4F226
:102780000200009005E040F62000C4F20200009034
:10279000FFE7009802900398007808384CF6CD4186
:1027A000CCF6CC41A0FB01100009019002980399DE
:1027B0004A6C22F0030210448864039940F68000BA
:1027C000C4F20200C864019800F01F010120884093
:1027D0000399086504B0704782B0019001980079B0
:1027E0000090009940F6FC00C4F2020000EB81006A
:1027F00001994865019940F64010C4F202008865CD
:102800000098013800F01F01012088400199C86537
:1028100002B0704784B00390029101920093039834
:10282000C16C006D48600398406D28B1FFE70398C4
:10283000816DC06D4860FFE70398016C406C00F04B
:102840001F02012090404860009803990968486081
:1028500003988068102809D1FFE701980399096857
:102860008860029803990968C86008E00298039993
:1028700009688860019803990968C860FFE704B097
:102880007047000086B005908DED040ACDED030A77
:1028900002919DED030A9DED041A30EE410A8DED83
:1028A000010A049800909DED050AB8EEC00A9DED5E
:1028B000011A20EE010A029901208840013801EE38
:1028C000100AB8EEC11A80EE010A9DED001A30EE32
:1028D000010A06B07047000081B041F20400CEF258
:1028E000000000680090009840F27831C2F20001C8
:1028F0000968884208D2FFE740F27C31C2F2000149
:10290000086801300860FFE7009840F27831C2F2B1
:102910000001086001B0704783B08DED020A41F2FA
:102920000400CEF200000068019002980090FFE7DA
:1029300041F20400CEF2000000680199401A00EE56
:10294000100AB8EE400A9DED001A40F26030C2F263
:10295000000090ED002AB8EE422A21EE021AB4EEF1
:10296000410AF1EE10FA01DAFFE7E1E703B0704740
:1029700080B584B0039041F20400CEF200000068FC
:102980000290029803990968401A00EE100AB8EE06
:10299000400A40F26030C2F2000090ED001AB8EE3A
:1029A000411A80EE010A8DED010A02980399086030
:1029B000FFF792FF9DED010A04B080BD80B582B0A3
:1029C00000F06CF840F68870C2F2000090ED000A4A
:1029D000B8EE401A818800EE101AB8EEC00A9FEDDA
:1029E0000B2A20EE020A30EE011AC08800EE100A0F
:1029F000B8EEC00A9FED062A20EE020A30EE010A68
:102A00008DED010A9DED010A02B080BD6F12833A7F
:102A1000BD37863581B000904EF6FC51CEF20001F4
:102A2000086840F08070086041F20401CEF20001B5
:102A30000020086041F20002CEF20002116841F06D
:102A400001011160009944F24022C0F20F024A4392
:102A500040F26031C2F200010A600A6844F6D353C2
:102A6000C1F26203A2FB0332920940F26433C2F264
:102A700000031A6009684DF68362C4F21B32A1FBA1
:102A80000221890C40F26832C2F20002116040F269
:102A90007C31C2F20001086001B07047B0B586B069
:102AA00041F20400CEF2000000680590FFF714FF29
:102AB00040F27C30C2F200000168059800230293C6
:102AC0004FF0FF3C1A46E1FB0C0240F27031C2F2BB
:102AD000000100914A6008600868496840F260346B
:102AE000C2F200042268FDF793FB029B02468C466B
:102AF000009940F23850C2F20000C0F804C00260F1
:102B0000D1F800C04968D0F800E042682468AEFB04
:102B100004E502FB0452BCEB0E0C61EB020240F236
:102B20004051C2F200010391C1F800C04A60006840
:102B300040F68872C2F20002049210600868496888
:102B400040F26432C2F2000201921268FDF760FBAB
:102B5000DDF804C0029B049A014603989180016845
:102B600040689288DCF800C002FB0CF28A1A60F11F
:102B7000000040F24851C2F200010A604860086853
:102B8000496840F26832C2F200021268FDF740FB69
:102B90000499C88006B0B0BD7047000083B00290B1
:102BA00001910092009890ED004A90ED012A90ED7D
:102BB000026A90ED035A26EE060AB6EE001A31EECE
:102BC000400A25EE053A30EE437A029824EE053AA3
:102BD00022EE060A30EE030AD0ED000AD0ED011A0B
:102BE00090ED023A20EE210A27EE207A30EE070A15
:102BF00024EE064A22EE052A32EE442A22EE032A69
:102C000030EE020A30EE000A019880ED000A0098CA
:102C100090ED004A90ED016A90ED020A90ED035AA2
:102C200024EE053A26EE002A32EE432A029826EEDA
:102C3000063A31EE433A25EE057A33EE477AD0ED87
:102C4000000AD0ED011A90ED023A27EE217A22EE29
:102C5000202A32EE072A24EE064A20EE050A30EE3C
:102C6000040A20EE030A30EE020A30EE000A019850
:102C700080ED010A009890ED005A90ED014A90ED28
:102C8000023A90ED032A25EE036A24EE020A30EEA2
:102C9000060A029825EE045A23EE022A32EE455A1D
:102CA00090ED006A90ED017A90ED022A25EE075A28
:102CB00020EE060A30EE050A24EE044A31EE441AEC
:102CC00023EE033A31EE431A21EE021A30EE010AE6
:102CD00030EE000A019880ED020A03B07047000050
:102CE00081B0EFF3108072B60090FFE7FEE70000BE
:102CF00080B542F65C20C2F2000002F025FD80BDE6
:102D000080B542F65C20C2F2000002F01DFD80BDDD
:102D100080B542F6C020C2F2000002F015FD80BD71
:102D200080B542F6C020C2F2000002F00DFD80BD69
:102D300080B542F62430C2F2000002F005FD80BDED
:102D400080B542F62430C2F2000002F0FDFC80BDE6
:102D500083B002904AF20040C4F200000090029852
:102D6000006846F60001C4F20001884205D1FFE781
:102D7000009800F554700090FFE70298006846F64E
:102D80000041C4F20001884205D1FFE7009800F538
:102D9000D4600090FFE700980299086402980068E8
:102DA000D0F8800020F4F810029A1168526B40EAC3
:102DB0000240C1F88000009870300299486402987F
:102DC0000068D0F8800020F07060029A1168926B61
:102DD00040EA0260C1F880000098B030029988642F
:102DE000009800F5C4700299C864009800F5187046
:102DF00002990865009800F51E70029948650098D0
:102E00000190FFE70198009901F55471884208D2BA
:102E1000FFE7019900200860FFE701980430019066
:102E2000F0E703B07047000088B007900691059264
:102E300004930698406848B9FFE7069801688268DD
:102E40000069104340EA8140039009E00698016858
:102E5000826800691043084340F080400390FFE718
:102E60000698D0F820C0C16842698369C06940EA09
:102E70000C601843104340EA014002900798406DEF
:102E8000049901EBC10100EBC10001900398019985
:102E90000860019804300190029801990860019837
:102EA0000430019000200090FFE700980699CA685E
:102EB00040F22031C0F60201895C88420DD2FFE762
:102EC00005980099405801990860019804300190D4
:102ED000FFE7009804300090E7E708B07047000073
:102EE00080B586B040F69C40C2F2000090F83300F6
:102EF00038B9FFE740F69C41C2F200010020C860EB
:102F0000DBE040F69C40C2F2000090F8330001285C
:102F100007D1FFE740F69C41C2F200010020C860E3
:102F2000CAE040F69C40C2F2000090F8330002284C
:102F300019D1FFE740F69C40C2F200000590D0EDA9
:102F40000B0A40F6E840C2F2000004909FED750ABB
:102F50000EF074FA0499059891ED0F0AB1EE400A4B
:102F600080ED030AA7E040F69C40C2F2000090F812
:102F70003300032827D1FFE740F69C40C2F200004F
:102F8000039090F8351000EE101AB8EEC00ABEEEAD
:102F9000001A30EE010A30EE000A9FED631A20EEAF
:102FA000010AD0ED0B0A40F6E840C2F200000290A0
:102FB0000EF044FA0299039891ED0F0AB1EE400A1F
:102FC00080ED030A76E040F69C40C2F2000090F8E3
:102FD0003300042820D1FFE740F69C40C2F20000F5
:102FE00090F8340040B1FFE740F69C41C2F2000186
:102FF0004FF08140C86008E040F69C41C2F20001F9
:103000000020CCF28000C860FFE740F6C401C2F2A5
:103010000001002088664CE040F69C40C2F20000AF
:1030200090F83300052843D1FFE740F69C40C2F2F8
:10303000000090ED0B0AB1EE041AB4EE410AF1EE75
:1030400010FA0EDCFFE740F69C40C2F2000090ED63
:103050000B0AB9EE041AB4EE410AF1EE10FA1CDACA
:10306000FFE740F69C40C2F200000190022180F888
:103070003310D0ED0B0A40F6E840C2F20000009099
:103080009FED280A0EF0DAF90099019891ED0F0AE8
:10309000B1EE400A80ED030A09E040F69C41C2F21D
:1030A0000001052081F833000020C860FFE7FFE73A
:1030B000FFE7FFE7FFE7FFE7FFE740F65D40C2F20B
:1030C0000000807F022819D1FFE740F69C40C2F241
:1030D000000090ED030A90F8321001EE101AB8EEDD
:1030E000C11AB7EE002A31EE021A20EE010AB1EE43
:1030F000081A80EE010A80ED030A10E040F69C40B9
:10310000C2F2000090ED030AB1EE041A20EE010AAB
:10311000B1EE081A80EE010A80ED030AFFE706B05F
:1031200080BD00BF000000000000344280B584B0C4
:1031300047F29050C1F6FF700068039047F2945038
:10314000C1F6FF700068029047F29850C1F6FF7018
:10315000006801900199039808440390039888B18E
:10316000FFE7039840F20C21C2F200010091023106
:1031700008220BF063F800990298123104220BF038
:103180005DF8FFE704B080BD80B58AB0099040F2D9
:103190005850C2F2000007901C309FED9C0A9FED32
:1031A0009C1A9FED9C2A8DED082ADFED9B2ACDED20
:1031B000062AF0EE420AF0EE421A0EF01DF9DDED9D
:1031C000062A07989DED082A6430B2EE040AF0EE54
:1031D000420AB0EE421AF0EE421A0EF00DF90798CC
:1031E0009DED082AAC309FED8D0ADFED8D2AF0EEC3
:1031F000420AB0EE421AF0EE421A0EF0FDF8FFE776
:1032000040F69C41C2F2000191F8302040F2585043
:10321000C2F2000002700A6942604969416140F6E9
:10322000C401C2F2000191ED160A9FED7E1A20EE54
:10323000010A9FED7D1A80EE010A80ED060A40F634
:103240004402C2F2000252698260B1F864108181C6
:10325000B0F90C00B0F5805F09DDFFE740F258518E
:10326000C2F200018889C0F5005088814FE040F229
:103270005850C2F20000B0F90C00B0F5805F11DCCC
:10328000FFE740F25850C2F20000B0F90C000028ED
:1032900008D4FFE740F25851C2F200018889404249
:1032A000888133E040F25850C2F20000B0F90C00BF
:1032B00010F5805F12DBFFE740F25850C2F20000C9
:1032C000B0F90C00B0F1FF3F08DCFFE740F25851C5
:1032D000C2F2000188894042888116E040F25850CD
:1032E000C2F20000B0F90C0010F5805F0CDAFFE7C5
:1032F00040F25851C2F200018A894EF20000CFF626
:10330000FF70801A8881FFE7FFE7FFE7FFE740F2E1
:103310005850C2F200000490B0F90C1000EE101AE0
:10332000B8EEC00A9FED411A20EE010A9FED401A47
:1033300080EE010A80ED040A016940F69C42C2F267
:1033400000020592D16290ED010AD0ED020A1C3014
:103350000EF074F8049890ED160A40F6C401C2F21B
:103360000001B1F9701001EE101AF8EEC10A6430D4
:103370000EF064F8049890ED050AD0ED060AAC3022
:103380000EF05CF80598007868B3FFE740F25850FB
:10339000C2F20000029090ED280ABDEEC00A10EEC5
:1033A000102A684600234360036042F6C020C2F240
:1033B000000003904FF4FF710DF098FB0299039801
:1033C00091ED050A91ED3A1A9FED1A2A20EE020AB4
:1033D0009FED192A80EE020AF1EE410A4FF488713E
:1033E0000DF052FC0DE0684600234360036042F696
:1033F000C020C2F200004FF4FF711A460DF076FBB8
:10340000FFE7012019F0A0FEFAE600BF0000C84364
:1034100000409C460000000000007A460000484240
:103420000000C84200003443DB0F49C00000B44331
:1034300000000046DB0F4940000034C380B5AEB049
:103440002C902B9100208DF8AB002B98006808B1D0
:10345000FFE7FFE7FFE72C9890F85800012804D118
:10346000FFE702208DF8B7005DE12C99012081F87B
:103470005800FFE7FFE70020259026902C98006871
:10348000B0F1A04F06D1FFE740F20010C5F20000F6
:103490000E9015E02C98006840F20041C5F2000142
:1034A000884207D1FFE740F20050C5F200000E90BD
:1034B0000C9003E000200E900C90FFE70C98FFE7C3
:1034C0000E9878B9FFE72C99C86D40F02000C865C8
:1034D000FFE72C99002081F85800FFE701208DF8C4
:1034E000B70020E10E980CF0B5F90D902C9800680B
:1034F0000CF0B0F9002840F00281FFE70D98002899
:1035000040F0FD80FFE72C9801680120B1F1A04F49
:103510000B900CD0FFE72C9800684FF60071CAF6AC
:10352000FF710844B0FA80F040090B90FFE70B9858
:10353000C10740F20070C5F2000000291CBF40F234
:103540000030C5F2000029902B980068002872D046
:10355000FFE72998806820F460402B9949682C9AED
:1035600092F8382041EA42310843299988602C9822
:1035700001680120B1F1A04F0A900CD0FFE72C9810
:1035800000684FF60071CAF6FF710844B0FA80F087
:1035900040090A90FFE70A98C10740F20070C5F29F
:1035A000000000291CBF40F20030C5F2000040F2CC
:1035B0000031C5F20001884210D1FFE74FF0A04072
:1035C0000CF030F9089040F20010C5F200000CF049
:1035D00029F901460898084309901BE040F2004091
:1035E000C5F200000CF01EF9069040F20050C5F242
:1035F00000000CF017F9014606980843079040F2C6
:103600000060C5F200000CF00DF901460798084370
:103610000990FFE7099868B9FFE72998806840F6A4
:103620001F7188432B9A11689268114308432999A6
:103630008860FFE762E02999886820F4604088602C
:103640002C9801680120B1F1A04F05900CD0FFE744
:103650002C9800684FF60071CAF6FF710844B0FA62
:1036600080F040090590FFE70598C10740F200701F
:10367000C5F2000000291CBF40F20030C5F2000076
:1036800040F20031C5F20001884210D1FFE74FF04F
:10369000A0400CF0C7F8039040F20010C5F2000003
:1036A0000CF0C0F801460398084304901BE040F278
:1036B0000040C5F200000CF0B5F8019040F2005057
:1036C000C5F200000CF0AEF80146019808430290E4
:1036D00040F20060C5F200000CF0A4F80146029828
:1036E00008430490FFE7049838B9FFE729998868F0
:1036F00040F61F7290438860FFE7FFE708E02C99CF
:10370000C86D40F02000C86501208DF8AB00FFE7D0
:10371000FFE72C99002081F85800FFE79DF8AB00E7
:103720008DF8B700FFE79DF8B7002EB080BD000010
:1037300080B5C4B02490239100208DF88B001F9099
:103740002398C0680021C4F27F01884201D0FFE7BE
:1037500000E0FFE7FFE7249890F85800012805D122
:10376000FFE702208DF8970000F059BC2499012052
:1037700081F85800FFE7FFE7249800680CF062F832
:10378000002840F03884FFE72498006823990A68ED
:1037900049680CF067F8249800680CF053F81E9004
:1037A000249800680CF026F81D901E98002840F020
:1037B000B881FFE71D98002840F0B381FFE7239808
:1037C0008068B0F1004F0ED1FFE72498006823997C
:1037D000096800220CF064F8249800684FF000415A
:1037E0000CF00AF90CE024980068239A116892689A
:1037F0000CF056F82498006800210CF0FDF8FFE763
:103800002398406924990968C96801F0180189085A
:10381000884021902398006904281CD0FFE7249851
:10382000006823990A680969219B0CF08BF8249899
:103830000068239A116992690CF0B6F82498006820
:10384000239A1169127F013AB2FA82F252095206A2
:103850000CF096F864E12498006800210BF0BAFFA0
:10386000400348B9FFE72498006800210BF0B2FF3D
:10387000C0F384601C9018E02498006800210BF0CD
:10388000A9FF90FAA0F04290429820B9FFE72020CB
:103890008DF80F0105E04298B0FA80F08DF80F0125
:1038A000FFE79DF80F011C90FFE71C981B902398E1
:1038B0000068400330B9FFE723980068C0F38460D4
:1038C0001A9015E02398006890FAA0F04090409874
:1038D00020B9FFE720208DF8070105E04098B0FAF5
:1038E00080F08DF80701FFE79DF807011A90FFE7C8
:1038F0001B981A99884207D1FFE724980068002294
:1039000011460CF065F8FFE72498006801210BF0E0
:1039100061FF400348B9FFE72498006801210BF0DC
:1039200059FFC0F38460199018E0249800680121C1
:103930000BF050FF90FAA0F03E903E9820B9FFE7C0
:1039400020208DF8FF0005E03E98B0FA80F08DF859
:10395000FF00FFE79DF8FF001990FFE71998189006
:1039600023980068400330B9FFE723980068C0F34C
:103970008460179015E02398006890FAA0F03C90BE
:103980003C9820B9FFE720208DF8F70005E03C982F
:10399000B0FA80F08DF8F700FFE79DF8F700179078
:1039A000FFE718981799884207D1FFE72498006825
:1039B000012100220CF00CF8FFE724980068022196
:1039C0000BF008FF400348B9FFE724980068022184
:1039D0000BF000FFC0F38460169018E02498006894
:1039E00002210BF0F7FE90FAA0F03A903A9820B935
:1039F000FFE720208DF8EF0005E03A98B0FA80F05C
:103A00008DF8EF00FFE79DF8EF001690FFE716989E
:103A1000159023980068400330B9FFE723980068A9
:103A2000C0F38460149015E02398006890FAA0F029
:103A30003890389820B9FFE720208DF8E70005E09E
:103A40003898B0FA80F08DF8E700FFE79DF8E700BE
:103A50001490FFE715981499884207D1FFE724983E
:103A60000068022100220BF0B3FFFFE724980068F2
:103A700003210BF0AFFE400348B9FFE7249800682C
:103A800003210BF0A7FEC0F38460139018E0249884
:103A9000006803210BF09EFE90FAA0F03690369855
:103AA00020B9FFE720208DF8DF0005E03698B0FA56
:103AB00080F08DF8DF00FFE79DF8DF001390FFE74F
:103AC0001398129023980068400330B9FFE72398B9
:103AD0000068C0F38460119015E02398006890FAA4
:103AE000A0F03490349820B9FFE720208DF8D7005B
:103AF00005E03498B0FA80F08DF8D700FFE79DF824
:103B0000D7001190FFE712981199884207D1FFE77B
:103B100024980068032100220BF05AFFFFE7FFE71B
:103B2000FFE7249800680BF075FE002840F0448100
:103B3000FFE724980068239A1168D2680BF0CCFE46
:103B40002398C0680021C4F27F01884240F033818D
:103B5000FFE724980068109023980068400330B96C
:103B6000FFE723980068C0F384600F9015E0239866
:103B7000006890FAA0F03290329820B9FFE7202038
:103B80008DF8CF0005E03298B0FA80F08DF8CF00C4
:103B9000FFE79DF8CF000F90FFE70F98013000F08E
:103BA0001F0009287DD8FFE723980068400330B93B
:103BB000FFE723980068C0F384600E9015E0239817
:103BC000006890FAA0F03090309820B9FFE72020EC
:103BD0008DF8C70005E03098B0FA80F08DF8C70086
:103BE000FFE79DF8C7000E90FFE70E98013000F048
:103BF0001F0080060D9023980068400330B9FFE74E
:103C000023980068C0F384600C9015E02398006846
:103C100090FAA0F02E902E9820B9FFE720208DF882
:103C2000BF0005E02E98B0FA80F08DF8BF00FFE7E6
:103C30009DF8BF000C90FFE70D980C99013101F041
:103C40001F020121914008430B9023980068400314
:103C500030B9FFE723980068C0F384600A9015E04C
:103C60002398006890FAA0F02C902C9820B9FFE7D8
:103C700020208DF8B70005E02C98B0FA80F08DF880
:103C8000B700FFE79DF8B7000A90FFE70B980A9985
:103C9000013101F01F0101EB410140EA015009909F
:103CA00082E023980068400330B9FFE7239800685A
:103CB000C0F38460089015E02398006890FAA0F0A3
:103CC0002A902A9820B9FFE720208DF8AF0005E060
:103CD0002A98B0FA80F08DF8AF00FFE79DF8AF00AA
:103CE0000890FFE70898013000F01F008006079059
:103CF00023980068400330B9FFE723980068C0F3B9
:103D00008460069015E02398006890FAA0F028904F
:103D1000289820B9FFE720208DF8A70005E0289813
:103D2000B0FA80F08DF8A700FFE79DF8A700069095
:103D3000FFE707980699013101F01F020121914028
:103D40000843059023980068400330B9FFE72398A3
:103D50000068C0F38460049015E02398006890FA2E
:103D6000A0F02690269820B9FFE720208DF89F002C
:103D700005E02698B0FA80F08DF89F00FFE79DF8E7
:103D80009F000490FFE705990498013000F01F00A0
:103D900000EB40020020CFF6206000EB0250084309
:103DA00040F000700990FFE710980999239A9268F3
:103DB0000BF076FDFFE7FFE72398408848F2080103
:103DC000084200F01781FFE7249801680120B1F153
:103DD000A04F03900CD0FFE7249800684FF60071C5
:103DE000CAF6FF710844B0FA80F040090390FFE77B
:103DF0000398C10740F20070C5F2000000291CBF03
:103E000040F20030C5F200000BF0DCFC209023985B
:103E1000006840F20001CCF22131884208D0FFE76F
:103E2000239800681021C9F2C00188425AD1FFE7E7
:103E30009DF882000006002854D4FFE7249800680B
:103E4000B0F1A04F09D0FFE72498006840F200616C
:103E5000C5F20001884244D1FFE72498016801209F
:103E6000B1F1A04F02900CD0FFE7249800684FF604
:103E70000071CAF6FF710844B0FA80F04009029060
:103E8000FFE70298C10740F20070C5F20000002968
:103E90001CBF40F20030C5F20000209941F400013F
:103EA0000BF042FD40F2CC00C2F2000000684FEA85
:103EB000901042F66351C0F23E51A0FB01104FEA50
:103EC000901000EB40014FF00C0000EB81001F90C0
:103ED000FFE71F9820B1FFE71F9801381F90F8E710
:103EE000FFE786E0239800680021CCF252718842F7
:103EF0003ED1FFE79DF88300C007C8BBFFE72498C9
:103F0000006840F20011C5F20001884209D1FFE7C4
:103F10002498006840F20051C5F20001884226D082
:103F2000FFE7249801680120B1F1A04F01900CD067
:103F3000FFE7249800684FF60071CAF6FF71084445
:103F4000B0FA80F040090190FFE70198C10740F204
:103F50000070C5F2000000291CBF40F20030C5F21D
:103F60000000209941F080710BF0DEFCFFE73FE09C
:103F7000239800680021CCF68431884236D1FFE7CF
:103F80009DF882004006002830D4FFE7249800689E
:103F900040F20011C5F20001884226D0FFE72498C4
:103FA00001680120B1F1A04F00900CD0FFE72498E8
:103FB00000684FF60071CAF6FF710844B0FA80F04D
:103FC00040090090FFE70098C10740F20070C5F279
:103FD000000000291CBF40F20030C5F2000020990B
:103FE00041F480010BF0A0FCFFE700E0FFE7FFE7F2
:103FF000FFE7FFE708E02499C86D40F02000C8659E
:1040000001208DF88B00FFE7FFE72499002081F85D
:104010005800FFE79DF88B008DF89700FFE79DF8AB
:10402000970044B080BD000080B58EB00C90002099
:104030008DF82F0007900C9820B9FFE701208DF82C
:104040003700DCE10C98406940B1FFE70C9890F82C
:104050002400012801D1FFE7FFE7FFE70C98C06DBE
:1040600050B9FFE70C9800F0CFF90C9900200866D2
:104070000C9981F85800FFE70C9800680BF0C2FB20
:1040800028B1FFE70C9800680BF080FBFFE70C9865
:1040900000680BF0CFFBF0B9FFE70C9800680BF05D
:1040A00081FB40F2CC00C2F200000068800942F6B9
:1040B0006351C0F23E51A0FB01108109022000EBC8
:1040C00041000790FFE7079820B1FFE70798013804
:1040D0000790F8E7FFE70C9800680BF0ABFB70B9AE
:1040E000FFE70C99C86D40F01000C8650C99086E88
:1040F00040F00100086601208DF82F00FFE70C98C2
:1041000000680BF09FFB09900C98C06DC00600285A
:1041100000F16781FFE70998002840F06281FFE71E
:104120000C98C06D40F0020020F480700C99C865B6
:104130000C9800680BF06EFB00287CD1FFE70C9810
:1041400001680120B1F1A04F06900CD0FFE70C9858
:1041500000684FF60071CAF6FF710844B0FA80F0AB
:1041600040090690FFE70698C10740F20070C5F2CB
:10417000000000291CBF40F20030C5F2000040F2F0
:104180000031C5F20001884210D1FFE74FF0A04096
:104190000BF040FB049040F20010C5F200000BF061
:1041A00039FB01460498084305901BE040F20040AB
:1041B000C5F200000BF02EFB029040F20050C5F259
:1041C00000000BF027FB014602980843039040F2E1
:1041D0000060C5F200000BF01DFB01460398084388
:1041E0000590FFE7059828BBFFE70C9801680120C0
:1041F000B1F1A04F01900CD0FFE70C9800684FF68A
:104200000071CAF6FF710844B0FA80F040090190CD
:10421000FFE70198C10740F20070C5F200000029D5
:104220001CBF40F20030C5F200000C9949680BF049
:104230006DFBFFE7FFE70C994A7FC86B40EA42300D
:104240008A68CB681843104391F8241040EA014073
:104250000A900C9890F8240001280BD1FFE70C98E5
:10426000816A0020CFF6FE7000EB41410A980843B6
:104270000A90FFE70C98C06A50B1FFE70C99C86A32
:10428000096B00F4787001430A9808430A90FFE72D
:104290000C980068C06844F20701CFF6F07108403E
:1042A0000A9908430C990968C8600C98006800696D
:1042B00020F040600C9A1168526B104308610C9812
:1042C00000680BF097FA08900998002868D1FFE77A
:1042D0000898002864D1FFE70C99087F91F83810FE
:1042E000800340EA41000A900C980068C06844F2DC
:1042F000020188430A9908430C990968C8600C9820
:104300000069A0B1FFE70C980168086940F48030AB
:1043100008610C980068D0F8C00043F6FF7188432C
:104320000C9A116812691043C1F8C00011E00C9892
:104330000168086920F4803008610C980068D0F8A2
:10434000C00043F6FF7188430C990968C1F8C000AA
:10435000FFE70C9890F84000012819D1FFE70C986E
:104360000068006940F2FD7120EA01020C9B1968A7
:10437000586CD3F848E0D3F84CC040EA0E0040EA4D
:104380000C001B6D1843104340F00100086106E06B
:104390000C980168086920F001000861FFE7FFE759
:1043A0000C98406901280CD1FFE70C980068006B5D
:1043B00020F00F000C9A1168126A013A104308634A
:1043C00006E00C980168086B20F00F000863FFE717
:1043D0000C98C06D40F0010020F002000C99C865F7
:1043E00008E00C99C86D40F01000C86501208DF8F8
:1043F0002F00FFE79DF82F008DF83700FFE79DF8AD
:1044000037000EB080BD000080B59EB01D9000202A
:104410001C901B901A901990189003A85421FBF738
:1044200041FF1D98006840F20041C5F2000188423A
:104430003AD1FFE74FF4803003904FF000401590E1
:1044400003A803F0CFFF18B1FFE7FEF749FCFFE731
:10445000FFE741F24C00C4F20200016841F48041E0
:104460000160006800F4804002900298FFE7FFE7D7
:1044700041F24C00C4F20200016841F010010160F9
:10448000006800F0100001900198FFE7802018906C
:104490000320199000201A9041F20000C4F6000099
:1044A00018A901F0E3FEFFE71EB080BD87B00690BB
:1044B0000591049200208DF80F001F2002909DF8B6
:1044C0001400C00720B9FFE701208DF80F004BE072
:1044D000FFE70299481E02900020019051B1FFE7CA
:1044E0000598029901F01F0120FA01F1012088438B
:1044F0000190FFE70198C00708B1FFE7E9E70498DA
:10450000009018282BD80099DFE801F028292929E4
:10451000292929291F292929292929291629292928
:10452000292929290D000298072804D3FFE7012033
:104530008DF80F00FFE716E00298082804D3FFE784
:1045400001208DF80F00FFE70DE00298102804D33A
:10455000FFE701208DF80F00FFE704E003E00120F2
:104560008DF80F00FFE7FFE79DF80F0078B9FFE730
:10457000059806990968486106980068806820F0E7
:10458000180004990843069909688860FFE79DF8B8
:104590000F0007B07047000080B582B0009000980F
:1045A00020B9FFE701208DF8070057E00098407F11
:1045B00038B9FFE7009900200877009800F052F81A
:1045C000FFE70099022048770098007980B9FFE75B
:1045D0000098016841F6B750C0F2C14048610098A8
:1045E0000068806820F018000099096888600BE076
:1045F00000988168C268FFF759FF20B1FFE70120EA
:104600008DF807002AE0FFE70098407930B9FFE70E
:10461000009801684FF0FF30086104E000980168DD
:1046200000690861FFE700980068806820F060007A
:10463000009A116852691043886000980068806889
:1046400020F08000009A11689269104388600099F8
:104650000120487700208DF80700FFE79DF807004C
:1046600002B080BD82B001900198006843F2000161
:10467000C4F20201884210D1FFE7FFE741F248008F
:10468000C4F20200016841F480510160006800F446
:10469000805000900098FFE7FFE702B070470000ED
:1046A00080B58AB008900791069200208DF8170017
:1046B000089818B1FFE7079820B9FFE701208DF8A7
:1046C0002700B5E10798C069012801D1FFE7FFE79E
:1046D00007988068042801D1FFE706E00798406941
:1046E000022801D1FFE7FFE7FFE7FFE708984079DD
:1046F000012804D1FFE702208DF8270098E10899EE
:1047000001204871FFE7FFE7089902200871079828
:104710008068042878D1FFE701F08AFF02900698AC
:1047200048BBFFE7FFE708980068406B00040028DB
:104730001BD5FFE701F07CFF0299401A022813D332
:10474000FFE708980068406B000400280BD5FFE7DE
:104750000899086940F00800086108990320087169
:104760008DF8270064E1FFE7DDE70798406A0899C4
:104770000968086426E0FFE708980068406BC00FEE
:10478000D0B1FFE701F054FF0299401A022812D37A
:10479000FFE708980068406BC00F58B1FFE7089921
:1047A000086940F0080008610899032008718DF835
:1047B00027003DE1FFE7DFE70798406A08990968AD
:1047C0004864FFE708980068806C069901F01002C1
:1047D00040F2FF31914088430799896A914008432C
:1047E00008990968886408980068C06C069901F007
:1047F0001002FF21914088430799C96A91400843FC
:1048000008990968C864FFE70798C06901281ED1A4
:10481000FFE708980068806B0490069800F010018C
:104820001F2000FA01F10498884304900798006A59
:1048300003900398069901F0100100FA01F1049821
:10484000084304900498089909688863FFE708986A
:104850000068C06B0490069800F01001072000FA71
:1048600001F104988843049007988069012803D1D6
:10487000FFE70020009013E007988069022803D129
:10488000FFE7012000900AE00798406918B9FFE7A8
:104890000120009002E000200090FFE7FFE7FFE723
:1048A0000799886849690843009908430390069866
:1048B00000F010014FF4807000FA01F10498884371
:1048C000049007980279039840F48071012A08BF88
:1048D00008460390069800F010014FF4007000FAAB
:1048E00001F104988843049007984279039840F4B2
:1048F0000071012A08BF08460390049820F4404044
:10490000049007980068022820D1FFE704F0BAF964
:104910000190019846F60101C0F68911884205D33D
:10492000FFE7049840F4004004900EE001984BF239
:104930000141C0F2C441884205D3FFE7049840F426
:104940008040049000E0FFE7FFE705E0079801687A
:10495000049808430490FFE70398069901F01001BA
:1049600000FA01F104980843049004980899096832
:10497000C863069800F010014FF4804000FA01F27D
:104980000898016808689043086008980068006803
:104990000490069800F0100140F6FE7000FA01F154
:1049A0000498884304900798C06803900398069978
:1049B00001F0100100FA01F10498084304900498F2
:1049C000089909680860069800F01001C02000FAF4
:1049D00001F2089801680868904308600798C06869
:1049E000C0F3830003900798006900F03C0103982E
:1049F00040EA8110039008980068006E069901F063
:104A0000100240F60F71914088430399914008438A
:104A1000089909680866089901200871FFE7089954
:104A200000204871FFE79DF817008DF82700FFE789
:104A30009DF827000AB080BD80B582B00090009834
:104A400020B9FFE701208DF8070016E000980079F3
:104A500038B9FFE7009900204871009800F012F87B
:104A6000FFE7009902200871009900200861009A70
:104A7000012111718DF80700FFE79DF8070002B0D2
:104A800080BD000082B001900198006841F20001F1
:104A9000C5F20001884210D1FFE7FFE741F24C0068
:104AA000C4F20200016841F480210160006800F452
:104AB000802000900098FFE7FFE702B070470000F9
:104AC00083B001900091019890F82500012836D11B
:104AD000FFE7FFE7019890F82400012804D1FFE7E1
:104AE00002208DF80B002EE00199012081F82400AE
:104AF000FFE7FFE70198806C0068C0B2009AD368B6
:104B00000021CFF6F87101EBC341D2F800C0536821
:104B100041EA0C611943137A41EA0341527A41EAAE
:104B2000422108430199896C0860FFE70199002040
:104B300081F82400FFE700208DF80B0003E001203E
:104B40008DF80B00FFE79DF80B0003B070470000E5
:104B500080B582B001900198C06C00680199096D20
:104B6000084218D0FFE70198816C086820F4807033
:104B700008600198C16C006D48600199C86B40F4F1
:104B80000070C8630198406B20B1FFE70198416B4A
:104B90008847FFE7FFE70198406D08B3FFE70198FA
:104BA000806D00680199C96D084218D0FFE701982F
:104BB000416D086820F4807008600198816DC06DB7
:104BC00048600199C86B40F48060C8630198406BED
:104BD00020B1FFE70198416B8847FFE7FFE7FFE758
:104BE00002B080BD82B0019000208DF803000198D2
:104BF00090F82500022807D0FFE701990420C86338
:104C000001208DF803002DE001980168086820F06C
:104C10000E0008600198816C086820F480700860BC
:104C200001980168086820F0010008600198016C93
:104C3000406C00F01F020120904048600198C16C58
:104C4000006D48600198406D58B1FFE70198416DD3
:104C5000086820F4807008600198816DC06D48601C
:104C6000FFE7FFE70199012081F82500FFE701999F
:104C7000002081F82400FFE79DF8030002B0704790
:104C800080B582B0019000208DF80300019890F863
:104C90002500022811D0FFE701990420C86301997B
:104CA000012081F82500FFE70199002081F8240008
:104CB000FFE701208DF803003FE0019801680868D4
:104CC00020F00E00086001980168086820F00100DB
:104CD00008600198816C086820F480700860019871
:104CE000016C406C00F01F02012090404860019868
:104CF000C16C006D48600198406D58B1FFE70198A4
:104D0000416D086820F4807008600198816DC06D65
:104D10004860FFE70199012081F82500FFE701992C
:104D2000002081F82400FFE70198806B20B1FFE7A5
:104D30000198816B8847FFE7FFE79DF8030002B009
:104D400080BD000080B584B003900398006C0068BB
:104D50000290039800680068019002980399496CDA
:104D600001F01F01C8404007002825D5FFE79DF846
:104D70000400400700281FD5FFE70398006800687B
:104D80008006002807D4FFE703980168086820F030
:104D900004000860FFE70398016C406C00F01F02FC
:104DA0000420904048600398006B20B1FFE703980F
:104DB000016B8847FFE76EE002980399496C01F0A8
:104DC0001F01C840800700282FD5FFE79DF8040089
:104DD0008007002829D5FFE703980068006880064F
:104DE00000280BD4FFE703980168086820F00A0048
:104DF00008600399012081F82500FFE70398016C02
:104E0000406C00F01F02022090404860FFE70399C9
:104E1000002081F82400FFE70398C06A20B1FFE773
:104E20000398C16A8847FFE734E002980399496C08
:104E300001F01F01C8400007002829D5FFE79DF8B1
:104E400004000007002823D5FFE7039801680868DD
:104E500020F00E0008600398026C406C00F01F0107
:104E6000012000FA01F151600399C863039981F8A8
:104E70002500FFE70399002081F82400FFE703984D
:104E8000406B20B1FFE70398416B8847FFE700E0E4
:104E9000FFE7FFE7FFE704B080BD000080B584B006
:104EA0000290029820B9FFE701208DF80F009CE0E6
:104EB0000298006840F20741C4F20201884218D803
:104EC000FFE7029908684FF6F872CBF6FD721044BE
:104ED0004CF6CD42CCF6CC42A0FB02026FF00300B0
:104EE00000EA9200486402990020C4F202000864BB
:104EF00018E0029908684FF6F832CBF6FD721044BC
:104F00004CF6CD42CCF6CC42A0FB02026FF003007F
:104F100000EA92004864029940F20040C4F20200A4
:104F20000864FFE70299022081F8250002980068D2
:104F300000680190019847F6F0718843019002994A
:104F40008868D1F80CC00B694A6940EA0C00184324
:104F500010438A691043CA691043096A01430198E2
:104F60000843019001980299096808600298FDF7CA
:104F7000F9FB02988068B0F5804F04D1FFE70299F1
:104F800000204860FFE702990879896C0860029860
:104F9000C16C006D48600298406888B1FFE70298D4
:104FA000406804280CD8FFE70298FDF715FC02982A
:104FB000416D002008600298816DC06D486007E077
:104FC000029900204865029988650299C865FFE743
:104FD00002990020C863029A012182F825100299E3
:104FE00081F824008DF80F00FFE79DF80F0004B052
:104FF00080BD000080B586B00490039102920193B9
:1050000000208DF80300FFE7049890F824000128A1
:1050100004D1FFE702208DF8170065E00499012014
:1050200081F82400FFE7FFE7049890F825000128A5
:105030004BD1FFE70499022081F825000499002054
:10504000C86304980168086820F0010008600498AB
:105050000399029A019BFDF7DDFB0498006B38B1C0
:10506000FFE704980168086840F00E0008600CE053
:1050700004980168086820F004000860049801683A
:10508000086840F00A000860FFE70498806C006838
:10509000C003002807D5FFE70498816C086840F436
:1050A00080700860FFE70498406D38B1FFE704980E
:1050B000416D086840F480700860FFE7049801685B
:1050C000086840F00100086009E0FFE7049900204B
:1050D00081F82400FFE702208DF80300FFE79DF828
:1050E00003008DF81700FFE79DF8170006B080BD9C
:1050F00080B584B0039001F09BFA02900398019070
:105100000198013048B1FFE740F2DC20C2F2000014
:105110000168019808440190FFE7FFE701F088FA71
:105120000299401A0199884201D2FFE7F6E704B0DC
:1051300080BD000086B0049003910292049890F81C
:105140005C008DF80700BDF80C0010F4C07F01D0A2
:10515000FFE7FFE79DF80700012806D0FFE79DF86D
:105160000700022840F0DE80FFE704980068806DA9
:1051700000909DF80C00400730B1FFE79DF800005B
:10518000C007002847D0FFE79DF80C0010F0380F4B
:1051900006D0FFE79DF80000800700283BD5FFE719
:1051A000BDF80C0010F4E07F06D0FFE79DF800008A
:1051B000400700282FD5FFE79DF80D0010F01E0FC7
:1051C00006D0FFE79DF800000007002823D5FFE781
:1051D0009DF80D0010F0E00F06D0FFE79DF80000ED
:1051E000C006002817D5FFE79DF80E00800730B1F4
:1051F000FFE79DF80000800600280CD5FFE79DF82A
:105200000E0010F0FC0F0DD0FFE79DF800004006E7
:10521000002807D4FFE704980168C86D40F001003A
:10522000C865FFE79DF80C00400730B1FFE79DF827
:105230000000C007002847D1FFE79DF80C0010F0E0
:10524000380F06D0FFE79DF80000800700283BD408
:10525000FFE7BDF80C0010F4E07F06D0FFE79DF8F3
:105260000000400700282FD4FFE79DF80D0010F044
:105270001E0F06D0FFE79DF800000007002823D48A
:10528000FFE79DF80D0010F0E00F06D0FFE79DF856
:105290000000C006002817D4FFE79DF80E00800725
:1052A00030B1FFE79DF80000800600280CD4FFE72E
:1052B0009DF80E0010F0FC0F0DD0FFE79DF80000E8
:1052C0004006002807D5FFE704980168C86D40F044
:1052D0000200C865FFE79DF80C000006002809D50C
:1052E000FFE7029A04980168D1F8DC001043C1F886
:1052F000DC00FFE79DF80D00C00748B1FFE7029A08
:1053000004980168D1F8E0001043C1F8E000FFE71D
:10531000039A04980168486D1043486500208DF891
:10532000170008E00499086E40F0020008660120AA
:105330008DF81700FFE79DF8170006B070470000D2
:1053400080B586B00490039102920398406808B932
:10535000FFE700E0FFE7049890F85C0002282FD1F7
:10536000FFE704980068D0F8C4008002002809D53F
:10537000FFE70499086E40F40070086601208DF87C
:10538000170026E004980068D0F8C400C0F301407C
:10539000019004980399029A019BFDF745FD01993C
:1053A000012000FA01F1049A1268C2F8CC100199A8
:1053B000884004998865FFE700208DF8170008E011
:1053C0000499086E40F00800086601208DF8170067
:1053D000FFE79DF8170006B080BD000087B005907C
:1053E0000491059890F85C008DF803009DF8030087
:1053F000012805D0FFE79DF8030002283CD1FFE714
:1054000004980068B8B9FFE704998868CB680A690E
:105410004969800740EAC36040EA024008430390BC
:105420000598006C0499496800EB8100019003988D
:10543000019908601CE00498C168006940EA417065
:10544000039004988168406940EA81700290059851
:10545000406C0499496800EBC100019003980199E0
:105460000860019804300190029801990860FFE7F4
:1054700000208DF81B0008E00599086E40F002003E
:10548000086601208DF81B00FFE79DF81B0007B0A0
:105490007047000085B0DDF814C0039002910192BE
:1054A0000093039890F85C00012819D1FFE7039856
:1054B0000068D0F8800020F03F0002990901019AAD
:1054C00041EA8201009A41EA4201059A11430843E8
:1054D00003990968C1F8800000208DF8130008E0E6
:1054E0000399086E40F00400086601208DF813004F
:1054F000FFE79DF8130005B07047000081B00090F1
:1055000001B0704782B00190009102B07047000076
:105510008AB00890079106920593002001900898A0
:1055200090F85C008DF803009DF80300022840F01D
:10553000FA80FFE7079840283ED1FFE70898006807
:10554000D0F89000000748B9FFE70899086E40F4CA
:105550008070086601208DF82700EDE0089800684B
:10556000D0F8900000F080710120B0EB116F0FD1E6
:10557000FFE708980068D0F8800000F4007101206F
:10558000B0EB512F03D1FFE701200190FFE7FFE7C8
:1055900008980068D0F8900000F44071019800EB82
:1055A000112001900898806C019901EBC10100EB7A
:1055B000C1000490FFE73DE008980068D0F898002B
:1055C000000748B9FFE70899086E40F48070086644
:1055D00001208DF82700AFE008980068D0F8980007
:1055E00000F080710120B0EB116F0FD1FFE7089838
:1055F0000068D0F8800000F480710120B0EB112F1A
:1056000003D1FFE701200190FFE7FFE7089800685A
:10561000D0F8980000F44071019800EB112001903F
:105620000898C06C019901EBC10100EBC100049026
:10563000FFE7FFE70498006800F0804006994860A3
:105640000698406838B9FFE704980068C0F38A40BC
:105650000699086006E00498006820F0604006990A
:105660000860FFE70498006800F000500699886021
:105670000498006800F0004006990861049804301E
:105680000490049800880699C86104980068C0F3E3
:1056900003400699C8600498006800F480100699D9
:1056A00048610498006800F4001006998861049825
:1056B0000068C0F306600699086204980068C00F8D
:1056C00006994862049804300490049803900020DE
:1056D0000290FFE702980699CA6840F22031C0F6AE
:1056E0000201895C88420AD2FFE70398029A805C33
:1056F00005998854FFE7029801300290EAE707987D
:10570000402806D1FFE7019808990968C1F894007C
:1057100005E0019808990968C1F89C00FFE700209E
:105720008DF8270008E00899086E40F00800086628
:1057300001208DF82700FFE79DF827000AB0704789
:1057400081B0009001B0704780B58AB00990099887
:105750000068006D00F4E050089009980068416D01
:1057600008980840089009980068006D00F007004C
:10577000079009980068416D0798084007900998BC
:105780000068006D00F03800069009980068416DCF
:1057900006980840069009980068006D00F47100B2
:1057A000059009980068416D059808400590099892
:1057B0000068006D00F46020049009980068416D55
:1057C00004980840049009980068406D0190099879
:1057D0000068006D00909DF8000000F0400100207E
:1057E000B0EB911F12D0FFE79DF8040000F04001DC
:1057F0000020B0EB911F08D0FFE709980168402016
:1058000008650998FFF79CFFFFE7FFE79DF8010097
:10581000C007E0B1FFE79DF80500C007B0B1FFE7A2
:1058200009980068D0F8D800029009980068D0F86C
:10583000E010029808400290099801684FF48070C7
:1058400008650998029900F0FBFCFFE7FFE708985C
:1058500048B1FFE708980999096808650998089907
:1058600000F0FAFCFFE7079848B1FFE707980999AD
:10587000096808650998079900F06CFBFFE706982E
:1058800048B1FFE7069809990968086509980699DB
:1058900000F0A2FCFFE79DF8010000F002010020EB
:1058A000B0EB510F13D0FFE79DF8050000F00201A7
:1058B0000020B0EB510F09D0FFE7099801684FF4C1
:1058C00000700865099800F0CDFCFFE7FFE79DF840
:1058D00000100020B0EBD11F1DD0FFE79DF8041091
:1058E0000020B0EBD11F15D0FFE709980068D0F871
:1058F000D400039009980068D0F8DC1003980840A1
:10590000039009980168802008650998039900F0C0
:105910009DFCFFE7FFE79DF8010000F0200100205B
:10592000B0EB511F13D0FFE79DF8050000F02001F8
:105930000020B0EB511F09D0FFE7099801684FF430
:1059400000500865099800F077FCFFE7FFE79DF835
:1059500001100020B0EBD11F11D0FFE79DF805101A
:105960000020B0EBD11F09D0FFE7099801684FF480
:1059700000400865099800F05BFCFFE7FFE79DF831
:10598000010000F040010020B0EB911F15D0FFE7AF
:105990009DF8050000F040010020B0EB911F0BD0F6
:1059A000FFE7099801684FF4804008650999086E7F
:1059B00040F080000866FFE7FFE7049848B1FFE782
:1059C000049809990968086509980499FFF79AFDF0
:1059D000FFE7059850B1FFE7059809990968086540
:1059E000059A0999086E10430866FFE70998006E4A
:1059F00020B1FFE70998FFF781FDFFE70AB080BDFE
:105A000080B584B00290029820B9FFE701208DF89C
:105A10000F0057E10298006846F20041C4F200010D
:105A2000884201D1FFE7FFE702988068B0F5407F28
:105A300001D1FFE7FFE7029890F85C0040B9FFE76B
:105A40000299002081F85D00029800F03FF9FFE71D
:105A500002980168886920F01000886100F0E8FD74
:105A60000190FFE70298006880690007002815D5BB
:105A7000FFE700F0DDFD0199401A0B280DD3FFE789
:105A80000299086E40F0010008660299032081F82F
:105A90005C0001208DF80F0014E1E3E70298016833
:105AA000886940F00100886100F0C2FD0190FFE7C5
:105AB000029800688069C007A8B9FFE700F0B8FD48
:105AC0000199401A0B280DD3FFE70299086E40F0A8
:105AD000010008660299032081F85C0001208DF81E
